:020000041000EA
:1000000000B5324B212058609868022188439860DF
:10001000D860186158612E4B002199600221596106
:100020000121F02299502B49196001219960352056
:1000300000F044F80222904214D00621196600F024
:1000400034F8196E01211966002018661A6600F04E
:100050002CF8196E196E196E052000F02FF8012189
:100060000842F9D1002199601B49196000215960AB
:100070001A491B48016001219960EB211966A021F2
:10008000196600F012F800219960164914480160C1
:100090000121996001BC002800D000471248134993
:1000A000086003C880F30888084703B5996A0420EC
:1000B0000142FBD001200142F8D103BD02B5186610
:1000C0001866FFF7F2FF186E186E02BD00000240BE
:1000D000000000180000070000035F00212200005C
:1000E000F4000018222000A00001001008ED00E03C
:1000F00000000000000000000000000074B24E7A12
:1001000000200420F7010010CB010010CD010010E9
:10011000C9010010C9010010C9010010C901001077
:10012000C9010010C9010010C9010010CF01001061
:10013000C9010010C9010010D1010010D301001045
:10014000C1010010C1010010C1010010C101001067
:10015000C1010010C1010010C1010010C101001057
:10016000C1010010C1010010C1010010C101001047
:10017000C1010010C1010010C1010010C101001037
:10018000C1010010C1010010C1010010C101001027
:10019000C1010010C1010010C1010010C101001017
:1001A000C1010010C1010010C1010010C101001007
:1001B000C1010010C1010010C1010010C1010010F7
:1001C000EFF30580103800BE00BE00BE00BE00BECA
:1001D00000BE00BEF2EB8871344F0010544F001087
:1001E0003802001090A31AE71E481F49086006C88D
:1001F00081F3088810471D480068002801D019487D
:10020000F3E70DA40ECC002902D000F012F8F9E7B4
:100210001749184A002000E001C19142FCD116495B
:100220008847164988471649884700BEFDE701C937
:1002300001C29A42FBD37047544F0010C000002007
:1002400070100020045F0010000004200000042053
:10025000045F0010001004200010042000000000C3
:10026000704700000000000008ED00E0000000D032
:1002700070100020781F0020991C0010210300102E
:10028000911C0010F8B5C0460448054B10B58342D8
:1002900003D0044B002B00D0984710BD70100020F5
:1002A000701000200000000006480749091A8B1052
:1002B000C90FC91810B5491003D0044B002B00D04A
:1002C000984710BD70100020701000200000000042
:1002D00010B5074C2378002B09D1FFF7D5FF054B4C
:1002E000002B02D0044800E000BF0123237010BDA2
:1002F000F8130020000000000C4B0010054B10B557
:10030000002B03D00449054800E000BFFFF7CCFFF5
:1003100010BDC04600000000FC1300200C4B001074
:1003200010B582B001F0CCFD1349144804F01AFA5C
:1003300000230193124B02000093002102230F4877
:1003400000F022F80F4C200001F00AFEFF220021ED
:1003500012040A4800F094F8FA20400000F032FF3E
:10036000FF2200210548120600F08AF8FA2040001A
:1003700000F028FFE7E7C046144B001000002050B3
:10038000005043490C4B0010F0B5CE464746994605
:1003900080B587B00EAB170004CB0E001C78354B30
:1003A0000500C118090D06314846C9B2904600F053
:1003B00073F8012331004A460093280004F054FAF0
:1003C00080235B020293FB1CFA011B0313432A4A9E
:1003D000052013400393F8224B46D2019B021340A1
:1003E0008022920513430593C02263425C4192052B
:1003F00063421340C022D20294466344049301F046
:1004000095F801F099FB1D49041C404601F08DFB55
:10041000011C201C01F075FBEC21890501F06EFB2D
:10042000804601F0B1FB84B20023002C0ED02000E6
:1004300001F082FB011C404601F05DFB8721C905EC
:1004400001F073FB01F0A0FBC3B21B0224043A00CD
:100450001C43310002AB2800029404F05FFA012330
:10046000B3402A6813432B6007B0C0BCB946B046FE
:10047000F0BDC0460000E0AFFFFFFF9F000020413D
:100480000B0010B5012410339C4043681C42FCD182
:10049000043189000A5010BD094A83009A1810B52A
:1004A00014684022544080322240064CC000A446CA
:1004B00063441A60044B9C466044416010BDC046D2
:1004C00004C0014004D00140004001408023DB050E
:1004D0001868000F7047C0460FB400B5084883B0D5
:1004E00001F03EFD049B002B07D005A918000191E7
:1004F00001F0B4FB034801F033FD012001F0C6FB1D
:10050000244B0010344B0010EFF3108072B6034AF6
:100510001368002BFCD0BFF35F8F70472C0100D015
:10052000BFF35F8F0022024B1A6080F31088704780
:100530002C0100D070B5EFF3108C72B60D4D2B6806
:10054000002BFCD0BFF35F8F0724CB08C618C05C1C
:1005500001230C40A3401C000440034207D1184370
:100560003070BFF35F8F2C608CF3108870BD10006B
:10057000FFF7B2FF2C0100D0F8B54746CE468846BB
:1005800080B5EFF3108C72B6214D2C68002CFCD096
:10059000BFF35F8F9A422CD8D4080727055D061950
:1005A00001241740BC402C421FD007210127894657
:1005B00009E0D408055D06194C4639001440A140F5
:1005C0000C00294211D001329342F2D20120404264
:1005D000BFF35F8F00220E4B1A608CF31088002847
:1005E0000FDBC0BCB946B046F8BD254310003570DE
:1005F000EEE7BFF35F8F00232B608CF310880120A0
:1006000040424346002BECD00898FFF765FFC046F8
:100610002C0100D0044A1078431CDBB2172B00D900
:10062000102313707047C046A80F002010B5064B6A
:10063000064C82B00100009318221F232000FFF710
:100640009BFF02B010BDC046384B0010BC1A002002
:100650000021044B044ABFF35F8F02C39342FAD1D7
:100660007047C046000100D0800100D0054B064A0B
:100670001360064A136053609360D3601361536143
:10068000936170478080808000E400E004E400E033
:100690001F2318401E3B8340002905D0C021044A77
:1006A0004900535013607047802201498B50FAE78C
:1006B00000E100E001228240034B1B6813405A1EF8
:1006C0009341D8B27047C04600E100E00123834067
:1006D000014A13607047C04600E200E0064B10304C
:1006E0009B688000C358054A00209B1A2F229A421B
:1006F0004041C0B27047C04600ED00E0AC0F0020A2
:1007000070B50D00EFF3108672B60F4A1368002B18
:10071000FCD0BFF35F8F0D4B10309B6884001B59DA
:100720000B4A934203D09D4201D001F007F8074BDA
:100730009B681D51BFF35F8FBFF35F8F0022024B99
:100740001A6086F3108870BD240100D000ED00E02F
:10075000C1010010F0B557464E46DE464546E0B5AD
:1007600085B0060000911700EFF3108B72B66A4A4D
:100770001368002BFCD0BFF35F8F0025674B5D57DC
:100780009A46002D00DA8BE06B00654C01935B19F3
:100790009B009846A146C1444B4652469B79103671
:1007A0001370604BB6009B6899590B1B2F2B33D9E4
:1007B0005D4B994200D0ACE0019B42469C465B4BAE
:1007C0006544AD0063535A4B0232A218043B9B1A96
:1007D0001B05584A5B0D651913436B80564B01216D
:1007E000AB80FF23AB71009BEF71AB604B460B43BB
:1007F00019004C4B9B689951BFF35F8FBFF35F8F1C
:100800000022454B1A608BF3108805B0F0BCBB4644
:10081000B246A946A046F0BD01200A008243D37922
:100820008C46BB4231D84546130044491B1B5B41F3
:100830005943090D3D4B63533D4B02356519043B4C
:100840005B1B1B053B4D5B0D2B43AA464D466B8046
:100850000425AC465546E044131F44441B1B1B05AE
:100860005B0D1D434B46997100999D8099604946E7
:10087000DF71334B01431360BBE75800C0188000A1
:100880002018C179B94211D902000623D356002B92
:10089000F3DA0293131D9A462A4B6146039319E03B
:1008A00000F04CFF002553465D576DE7908802939A
:1008B0004005131D9A46031561469C464046D444A4
:1008C000634604302018181AE0230005400D1B026F
:1008D0001843039004235B429C46E14450464B4638
:1008E0001B1A1B055B0D9C46124B9571984663467F
:1008F000404603439380019B5A199200039BA4181E
:10090000A380029B0E4AA371009B2260E771A36043
:100910006FE700F013FF4FE7240100D0711F0020A4
:10092000AC0F002000ED00E0C101001000A1FFFFAE
:10093000DC0F002000E0FFFF01BDFFFFAAAA0000BE
:100940000148804701BD000070B501240443EFF366
:100950000581EFF3108C72B6214A1368002BFCD08E
:10096000BFF35F8F1F4B05001F4AED1A6D416A43AD
:10097000120D1E4D8900AE6852B27658A6421CD0A8
:100980000621595691421CD012215956914222D02B
:100990001E215956914220D02A21595603249142B2
:1009A00010D0134B19781A708171BFF35F8F00223A
:1009B0000B4B1A608CF3108870BDAB680D4C5C500B
:1009C000EFE700246100091989005B18FF21997184
:1009D00009499980E5E70124F4E70224F2E7C046DB
:1009E000240100D0AC0F0020AAAA000000ED00E016
:1009F000711F0020C101001001BDFFFF10B5084BA1
:100A0000084C82B001000093002205232000FFF76C
:100A1000B3FD002801DB1F23181A02B010BDC04629
:100A2000544B0010751F0020024B9C466144890006
:100A30000160704740000034F8B5134D134E2C0090
:100A4000FF27B5421ED22368002B0FD0FFF7E2FD2F
:100A500001002800FFF7E8FFA780BFF35F8F08348D
:100A6000B4420FD223682500002BEFD1FFF7D2FD4F
:100A700001002800FFF7D8FF2771BFF35F8F08340C
:100A8000B442EFD3F8BDC0466810002070100020BB
:100A900010B50400FFF7BEFD01002000FFF7C4FF02
:100AA000FF232371BFF35F8F10BDC04610B5040054
:100AB0000120FFF7BBFD034BC3189B002360BFF36E
:100AC0005F8F10BD40000034034B9C466144890099
:100AD0000160BFF35F8F7047400000340A4B196814
:100AE000EFF3108072B60A68002AFCD0BFF35F8F64
:100AF0001B68BFF35F8F00221A6080F3108840BF2D
:100B0000002000217047C046501F0020F0B5DE468F
:100B100057464E464546E0B585B0EFF305820323C0
:100B20001340B64A9900575801229A408846934686
:100B3000B34B1A60B34B02935B46B348436308233D
:100B4000FE5E002E35DABB881BB2002B00DBA8E06E
:100B5000BB79002B00D0E9E00823F85E00281EDBFB
:100B600043007A691B18DB00D3189D68DC686B1C96
:100B700000D108E1A44801004144826A0B69AE1A21
:100B80009B1A9E4213D35A46036A1A420FD09E48BC
:100B900000F0BCFB8C4202DCCED18542CCD940BFF8
:100BA00005B0F0BCBB46B246A946A046F0BD0D61FB
:100BB000EDE77A69730091469B19DB0099444B4637
:100BC0009C68DD6800F0A2FB8D42BCDC00D1FEE039
:100BD000002D00DAE3E04B46029A1B69934200D1F4
:100BE000D5E04A465288494694460822B85E624695
:100BF0000004496910439847009001910099019AB7
:100C00000B001000134300D1C9E013000A000028B4
:100C100000DBE0E020002900801A99414B469860F3
:100C2000D96000229A5E002A00DA8CE753009C18F3
:100C30007D69E4002C190093A368E4689A468C420D
:100C400000DD80E702D1834200D97CE708239C467F
:100C5000BC443A8103976746009BB4463E000EE0D1
:100C60008C4200D1C5E01E000023F25E002A0BDB9F
:100C700053009C18E4002C19A768E468BA469B1836
:100C8000DB00EB188C42EBDD330066469C464B469E
:100C90001A806346039F1E80BB881BB2002B00DABC
:100CA00056E73A69EFF3108172B61368002BFCD057
:100CB000BFF35F8F0123BE885B42BB8036B23B69C6
:100CC000BFF35F8F00221A6081F31088002E00DAD4
:100CD0003EE73B0008333A0099467D6973009B1953
:100CE000DB00EB189968DC688C460820115E4846EA
:100CF000002910DB009306E0A34240D00023F95EF8
:100D00003800002906DB4F007F18FF00EF19FB6851
:100D1000A342F1DD009B068000201E5E1980002E9C
:100D2000DCDA1700BB79002B00D115E70023BB717B
:100D30003D000823F95E08354B1C00D12FE77C6984
:100D40000800A44603E035004B1C00D106E74B0029
:100D50005B180A006146DB00CE18C95E73881BB2BF
:100D6000002BF0DA01235B42DC17B360F4608242AF
:100D7000EAD029803B89100033803A81E4E7BB68E0
:100D80006345BBD9C6E7631C00D0F3E6FFE64B46DC
:100D90005B699A461B6950469847002823D14B4609
:100DA0001B883A693B81EFF3108372B61168002902
:100DB000FCD0BFF35F8F49467A880A803A697E800B
:100DC000BFF35F8F0021116083F31088BBE684427C
:100DD00000D8FDE6B7E60C4800F098FA009B019CAD
:100DE000C01861411AE753461A685B680092019384
:100DF00004E7824500D836E746E7C046341F0020A6
:100E00003C7005400D0B00100040054070B52E4CA5
:100E10002569002D04D00A212C48FFF705FE70BD7E
:100E20002B4E0321300000F067FAE660FFF7F2FB7B
:100E3000284B03229C46D02322701B061B680121ED
:100E40006370254B6044A3600F2380002061022063
:100E5000638063694942A180198002311986473154
:100E60001D83585218315A5275325C3999521832D2
:100E70000131995218320131995218320131995287
:100E8000083518329D520231183299521832013108
:100E9000995218320131995218320131995218324F
:100EA000013199521832013199520C4B0C49DC60D6
:100EB00001303562FFF724FC01210320FFF7E8FB36
:100EC000084B1D60A7E7C046F40F0020501F00200C
:100ED0000040054040000034FFFF1000341F002098
:100EE0000D0B00103860054000487047F40F0020DB
:100EF000F8B51F0008AB1B7804001600002B08D1C2
:100F000000F00CFA32003B00121A8B41002B00DA81
:100F100053E02269EFF3108072B61368002BFCD007
:100F2000BFF35F8F0223E15E63694A005218D2006B
:100F30009B18002937DB1A8862802269BFF35F8F14
:100F40000025156080F31088069A9E60DF601A61A4
:100F5000079A5A615A8801325204520C101C002A16
:100F60001FD082B25880080410432669EFF310871F
:100F700072B63268002AFCD0BFF35F8FA2881A8055
:100F8000A1802369BFF35F8F00221A6087F3108866
:100F90000B4923788C4601329A40E36863441A6017
:100FA000F8BD0120DDE72369BFF35F8F00221A60DF
:100FB00080F3108801204042F2E70020F0E7C046AD
:100FC0003C20000070B501000469EFF3108C72B68C
:100FD00020680028FCD0BFF35F8F02200D5E4C69B3
:100FE00068004019C0002418002D37DB2088488095
:100FF0000869BFF35F8F002606608CF31088E360FA
:1010000063880498013320615B0405985B0CA2603F
:1010100060611A1C002B1FD093B228046280184311
:101020000A69EFF3108C72B61368002BFCD0BFF383
:101030005F8F8B8823808D800B69BFF35F8F0022C9
:101040001A608CF310880B7801329A40CB680849FB
:101050008C4663441A6070BD0122DDE70B69BFF363
:101060005F8F00221A608CF3108801204042F2E763
:101070003C20000010B543890A1493421ADD530046
:101080009B184269DB00D3180469EFF3108C72B629
:101090002268002AFCD0BFF35F8F5A88090494B2FB
:1010A000090C8A4208D00369BFF35F8F00221A60DF
:1010B0008CF31088002010BD8022120214435C8043
:1010C000012302698371BFF35F8F002111608CF3EC
:1010D0001088044902788C469340C268012062441B
:1010E0001360E8E73C20000040787047F0B504004A
:1010F0000D0006267642F717C64636196F4100B531
:1011000082B08F4214D811D000F008F932003B00B1
:10111000121A8B41002B17DC002B47D0200029002E
:1011200000F006F902B080BCB846F0BD8642EBD9AB
:101130000022002316001F0000F0F0F832003B00F0
:10114000121A8B41002BE7DD00F0E8F832003B007B
:10115000121A8B41002B0ADB00230193154B32003E
:10116000009315483B00FFF72DFF0028D6DB002336
:101170009C46B046114A124E736A9F4204D8B16A27
:101180004145CBD29F42C9D11168EFF3108072B6AE
:101190000B68002BFCD0BFF35F8F1368BFF35F8F2A
:1011A0006146196080F3108820BFE5E7002AB5D0BA
:1011B000CAE7C046DD0A0010F40F0020501F0020CF
:1011C0000040054070B5060000F0A8F8FA220400BF
:1011D0000D00002330000021920000F06FFC8023FE
:1011E000001969411B06994202D30120024940427D
:1011F000FFF77CFF70BDC046FFFFFF7FF0B5CE4616
:10120000474680B504000D0083B0EFF30587002F3B
:101210000DD0364A0020536A8B4203D3926A0130C4
:10122000A24250D303B0C0BCB946B046F0BD304B6B
:101230009846DB689946434648461E7800F066F8B3
:101240000B00494602000436B600715820008E1A81
:101250002900801A99418F4211DC0ED020BF234A09
:101260000020536AAB42DDD3926A0130A242D9D248
:10127000EB1A5A1E9341D8B2D4E78642EED900F059
:101280004DF822002B00121A8B41002B20DB00238B
:101290000193184B2200009340462B00FFF792FE6B
:1012A000011E15DD114B2E005A6A95421CD89B6A0F
:1012B000A34217D34046FFF7DDFE0C4A0020536AD5
:1012C0009E42AFD8D0E75B1A5A1E9341D8B2A9E725
:1012D000064A0020536AAB42A4D3926A0120A2427C
:1012E000A0D2C5E79542E5D120BFE3E70040054025
:1012F000F40F0020DD0A001010B5024A0248FFF783
:1013000019F910BD704B0010C01A00200300416A8B
:101310000A00986A596A8A42FAD17047034B596A9F
:101320000A00986A596A9142FAD170470040054014
:10133000064A536A9942FCD807D1044B02E05A6A24
:10134000914202D19A6A8242F9D370470040054027
:10135000F8B5DE464E4657464546E0B58B46050095
:101360000A991800160000F01BFB0A9B6C001F0274
:10137000324B64199C46A4006444636881469F42D2
:1013800000D967602B1FDBB29846012B30D9C023F0
:1013900080229B01E31812011A60294BAD005959B4
:1013A0009A4600291BD17301E026226853401E4053
:1013B000802342465B01E3181E60012A30D9802356
:1013C00080229B01E31812011A6053464A46676067
:1013D0005A51F0BCBB46B246A946A046F8BD586972
:1013E00000F0DEFA013043001B18033BFDD2DAE7C0
:1013F0005B46012BCBD1C02303229B01E3181A606B
:10140000023AA3681A42FCD07301E0262268AD00BC
:1014100053401E4080230A4A5B019246E3181E6037
:101420005A462168514003220A401A6001225B4655
:101430009A40A3681A42FCD0C1E7C0460080004031
:10144000C41A0020F0B546464F46D646C0B51F0028
:10145000344B44009C462418A400644463688846C6
:101460001600FF2B02D880235B006360031FDBB2F2
:101470009A46012B30D9C02380229B01E318120128
:101480001A60294B85005959994600291BD17301CF
:10149000E026226853401E40802352465B01E31839
:1014A0001E60012A30D9802380229B01E31812019B
:1014B0001A6080235B0063604B465F51E0BCBA4614
:1014C000B146A846F0BD586900F06AFA0130430001
:1014D0001B18033BFDD2DAE74346012BCBD1C023D7
:1014E00003229B01E3181A60023AA3681A42FCD057
:1014F0007301E0262268850053401E4080230A4A7B
:101500005B019146E3181E60424621685140032268
:101510000A401A60012342469340A2681342FCD05D
:10152000C1E7C04600800040C41A0020014B800083
:10153000C0587047C41A0020F8B5040020481D00A8
:1015400017000E0000F02CFA0100380000F028FA15
:10155000069B29041B0319432368002B1EDB194B30
:10156000194DE21853425A4180235B019C461203F5
:10157000164B62441A60164B1A6017002B689F4383
:10158000FBD1144B2660E2182123A060136023686E
:10159000002BFCDA0823E1601360F8BD3F232268CA
:1015A0001340B342DBD1A3681B051B0D8342D6D188
:1015B000EE22E368D20213408B42D0D1EDE7C04661
:1015C000001BB7000040FDBF08C0004000E0004025
:1015D00000F000400430000010B580241C4BE405EE
:1015E0001C6000281AD001231A4C18431A4BDC61E6
:1015F0001A4C44401C62596298628021144BC90500
:101600001960174817490860E021C9041960002AC9
:1016100007D18022144B12061A6010BD0E4BD86100
:10162000EBE753019B1A9B009A18802312015B047D
:101630009A4209D213000D490B60074B5A60802271
:10164000094BD2051A60E8E7094B1A00F3E7C046D8
:1016500000B00540D3C007B0008005402D3FF84FD3
:10166000FCFF01000820014000A00540241F0020CD
:10167000FFFFFF008023024A9B000B43D3627047A9
:1016800000800540142310B50100188804331B881E
:10169000984710BD162310B50100188802331B8827
:1016A000984710BDF8B54746CE4680B50F1E19D0F5
:1016B00014239946043304000025012698464B461E
:1016C0001888434621681B88984701C4431E9841E7
:1016D000013540420640AF42F1D13000C0BCB946AE
:1016E000B046F8BD0126F8E7142370B50400188849
:1016F00004331B880D000549984703000020002C87
:1017000001DB0130A04029009847C0465542000047
:10171000AA23064A1B0113608D235B00D360044992
:10172000044B19605368002BFCDA704700400240FC
:1017300000B0FA00006002407047C04610B5014892
:10174000FEF7CAFE944B001070B5074D074EB54228
:1017500009D20024013E761BB60808CD9847230025
:101760000134B342F9D170BDC84A0010044B0010D7
:10177000054B064A06491A60064A074B1A601000D4
:101780000B689843FBD1704700E00040BFCDFBFEE3
:1017900008C00040FE7F3C0000F00040044BDB6CC2
:1017A000002B03D18022034BD2021A607047C0463F
:1017B000000011504C201150044A054B1A60054A94
:1017C0001368DB018033FBD17047C046FFFFFF0188
:1017D00000F0004008C000404022034B9A675A675F
:1017E0001A67DA667047C04600F0014010B5FEF790
:1017F0002FFF10BDF8B52B492B4C2C4D641AA610A9
:101800003200302E00D930222800920000F018FA61
:10181000BC2C3ED8731C18000127254A302B3BD91D
:101820002F212C196407E40F891B052917D9302BA8
:1018300015D8002C33D0B300EA503F1B33199B005E
:101840007908EB18C900C9181A605A6008338B422E
:10185000FAD101233B421CD09F433E18731CB100B8
:101860006A50302B15D09B00EA50B31C2E2E10D09E
:101870009B00EA50F31C2D2E0BD09B00EA50331D29
:101880002C2E06D09B00EA50731D2B2E01D09B00FE
:10189000EA50084B9D60F8BD2F37BF1BC0E73000F2
:1018A000CBE7C04600010010C0010010000000207E
:1018B000C101001000ED00E0002310B5294C82B0FA
:1018C000A367FFF725FF0122274B1A60636C012BEA
:1018D000FCD10322254B1A60224A936B012BFCD1C9
:1018E000013300930121224A22480433FFF724FEEA
:1018F000052301210093204A2048FFF71DFE002206
:10190000022104201E4BFFF79DFD0022012105202E
:101910001C4BFFF797FD0022002107201A4BFFF711
:1019200091FD002200210820174BFFF78BFD80233B
:10193000DB000093002200210920134BFFF708FD74
:101940000022104B00210620FFF77CFD0420FFF74A
:10195000EDFD0E4900F024F801000020FFF78AFE9B
:1019600002B010BD008000403CB0004030B00040EC
:10197000002F685900800240008C864700C002405A
:10198000001BB70040597307006CDC0240420F0097
:1019900001480421014B184710100020A516001023
:1019A000114A936F9B0813D210665166002905D027
:1019B000FFE7FFE7FFE7516F106F704704B500289E
:1019C00001D00020C04303F037F8002104BDC04619
:1019D000F0B5146E556E576F166FFFF7E5FF14667E
:1019E000556657671667F0BD000000D0132370B529
:1019F0001D78012D19D014DD1F48FFF74BFE06009E
:101A00001E48FFF747FE1E4C80223100200000F0E8
:101A100017F9022D2DD01B48FFF734FE1A4B186022
:101A200070BD1A4B164CA364F5E7184B144C236099
:101A30006360A360E36023616361A361E361236288
:101A40006362A362E36223636363A363E363236468
:101A50006364A364E36423656365A365E365236648
:101A60006366A366E36623676367A367E367A364AC
:101A7000D1E7064BA364CEE7534400005346000071
:101A8000F81100204C3300004C1F0020911A001068
:101A900007B5604601880A0A0230DF2AFAD1C9B2C6
:101AA000820804D3028840880004104300E00068E4
:101AB000014A5050039007BDF811002051434343A1
:101AC000C9188C46110C83B24B4310B4040C61430B
:101AD00092B280B2504362431C041B0C001910BC2C
:101AE00059411304120CC018514161447047000061
:101AF0004840414048400E4B5B6818470C4B1B6800
:101B000018470C4A936F9B0802D2094BDB681847B1
:101B1000F0B5146E556E576F166FFFF7F6FF054A56
:101B20001466556657671667F0BD014B9B681847EA
:101B3000F8120020000000D0491A002808D10846F9
:101B400070470000C10FC90700D54042002817D0D8
:101B5000F44603B40B4B1B68984706BC81409E3883
:101B60004042803107D20B0607D04900490AC00520
:101B70001043084360470130F8E7490A8902F5E756
:101B8000704700004C1F0020014B5B6A18470000A3
:101B9000F8120020132310B512481C78FFF77AFDC5
:101BA0000100012C0AD003DD80220F4800F048F824
:101BB0000E48FFF767FD0E4B186010BD0A4C54220B
:101BC000200000F03DF80B4B6365A365E3652366D9
:101BD0006366A366E36623676367A367E3672362BD
:101BE000E361E5E753460000F81200204C330000A3
:101BF0004C1F0020F91B001007B5604601880A0A37
:101C00000230DF2AFAD1C9B2820804D302884088A0
:101C10000004104300E00068014A5050039007BDE3
:101C2000F812002001480421014B18472010002021
:101C3000A5160010014B1B6818470000201000205B
:101C4000014B5B68184700002010002010B50028E9
:101C500000D110BD00F038F9FBE7C04610B5094AC5
:101C60000300146884B0002C08D0012200910648BB
:101C7000524203A9A047012004B010BD00F070F942
:101C80000020F9E7201F00204D1C001000BEFDE7DA
:101C900010B5FFF7FBFFC04670B5FFF755FD074DC8
:101CA000074EB54209D20024013E761BB60808CD86
:101CB000984723000134B342F9D170BD044B0010A2
:101CC0000C4B0010030010B5080011001B6898476A
:101CD00010BDC046F0B546464F46D646C0B5437D1A
:101CE00080460E001700002B4BD0002A32DD274B18
:101CF00001259A464B1E00240020994607E0335DDB
:101D00000A2B2CD02B0001340135BB4213DA002CF6
:101D1000F5D133780A2BF5D143461B7D002BF1D149
:101D20004346504602211B68984728002B00013487
:101D30000135BB42EBDB874204DD4346391A1B68A1
:101D400030189847F619013E33780D3B5A425341FB
:101D500042461375E0BCBA46B146A846F0BD4B46B4
:101D60001B5D0D2BCED0A042DADA4346211A1B6848
:101D7000301898474346504602211B689847280070
:101D8000D4E70368110030009847E3E7344C0010B3
:101D9000F0B5DE4657464E464546E0B585B01700DD
:101DA0001C0006000D00FFF7B9FA0023314A121893
:101DB0004B41802109068B4202D301222E4B524215
:101DC0002E4908008A4602F04FFE01906B1C03D199
:101DD000300002F0F1FD0500002C26D0284B98467B
:101DE000284B1C68002C15D0002F21D1264F02E073
:101DF0002469002C0ED02368002BF9D03B68002BFF
:101E000001D0A342F4D120002A003100C047246948
:101E1000002CF0D1019B002B28D1280005B0F0BC8C
:101E2000BB46B246A946A046F0BD184B9846D7E738
:101E3000154B994602ABDF1D0A239B4602E024693D
:101E4000002CE7D02368002BF9D04B461B68002BF1
:101E500001D0A342F3D12A0031002000C0475B46E5
:101E60000122390020003B70C047E8E7504602F0ED
:101E7000DBFDD2E740420F00FFFFFF7F681000202C
:101E8000D51C0010141B00201C1B0020C51C0010BA
:101E90000A4A1368002B05D10CE01A001B691032A6
:101EA000002B07D09842F8D1002902D103691360B2
:101EB000016170470029FCD01060FAE7141B002074
:101EC00010B500F08DFA10BDF0B5CE46474680B58E
:101ED00083B06B460600DD1D2870FFF71FFA002354
:101EE0001A4A12184B41802109068B4202D3012263
:101EF000174B524217490800884602F0B5FD164BB1
:101F000081461C68002C14D0144F02E02469002C78
:101F10000FD02368002BF9D03B68002B01D0A342DF
:101F2000F4D1200001222900FFF7D4FE2469002CFF
:101F3000EFD14B46002B05D1300003B0C0BCB946F1
:101F4000B046F0BD404602F06FFDF5E740420F009D
:101F5000FFFFFF7F68100020141B00201C1B0020C7
:101F600070B5040002F028FD0123010005000122E4
:101F70002000FFF70DFF084B1C68002C06D063689B
:101F8000002B05D098472469002CF8D1280070BD9B
:101F90002469002CF3D1F9E7141B00207047C046D8
:101FA0000022014B1A707047721F00204B790020ED
:101FB000FF2B0BD18B79002B08D1CB79012B05D1CD
:101FC000082A03D9024B8A7809301A707047C04634
:101FD000721F00200120704710B5012901D0012097
:101FE00010BD13495379107909781B02034300206F
:101FF0009942F5D15378012B08D0022BF0D1002063
:1020000064220021FFF7E8FA0120E9E7D37891780C
:102010001B021943DB0507D54A0A100001231A40A9
:102020007E331940FFF760FB01204A0A4042F5E782
:10203000721F002000487047004D001070B5050069
:1020400014000120012909D153780020012B05D16A
:10205000637912791B021343072B00D070BD210056
:102060002800024A9F3301F067FAF7E7584C001046
:102070000123037000487047384C00104B780A78F1
:102080001B0213438A7810B512041A43CB781B063F
:1020900013439622D200934200D010BD00220120AB
:1020A00011004042FFF720FB024B1860024B196001
:1020B0007047C046B41A0020B81A002010B5024B71
:1020C0001878FEF703FB10BD731F0020154B70B589
:1020D0001A68002A22D0EFF3108172B61068002827
:1020E000FCD0BFF35F8F00200F4A596010701B684F
:1020F000BFF35F8F186081F31088002400250B4E1A
:102100003078FEF7D7FA002804D1002400252900F2
:10211000200070BD3078FEF7D9FAF8E7FA240025E0
:10212000A400ECE72C1F0020741F0020731F002068
:1021300070B5040000200E0001F01EFB002836D010
:10214000002001F02FFB002831D0FFF7E7F8002333
:10215000184A12184B41802109068B4216D2164D9F
:10216000280002F081FC002821D0002001F004FBAF
:1021700000280FD101200021404200F00DFD032472
:102180006442280002F050FC200070BD01220B4B7D
:102190005242E4E7002001F005FB0028EAD02100CC
:1021A0003200002001F008FB041EEAD1E7E7032417
:1021B0006442E9E740420F00541F0020FFFFFF7F09
:1021C00010B5FFF7ABF800230E4A12184B418021DF
:1021D00009068B4202D301220B4B52420B4C2000CA
:1021E00002F042FC00280CD001200021404200F007
:1021F000D3FC002001F02AFB0028F5D1200002F0DA
:1022000013FC10BD40420F00FFFFFF7F541F002052
:10221000F8B5DE46574680B505000C00FFF77EF89E
:102220000023374A12184B41802109068B4202D302
:102230000122344B5242344908008A4602F014FC11
:10224000002803D1C0BCBB46B246F8BD002001F057
:1022500093FA00284AD00026002C43DD2B4B9B46E6
:1022600014E0A919002001F02BFB07000120002138
:10227000404200F091FC002001F0E8FAFFF74EF830
:10228000224BF61918605960B4422BDD002001F092
:1022900037FBA71B0200B84200DD3A00002AE0D15C
:1022A00001200021404200F077FC002001F0CEFA2E
:1022B000002001F061FA002814D0002001F020FB7A
:1022C0000028E1D1FFF72AF85B460F001A685B6827
:1022D000002184460E4812184B419F4202D8D3D1A8
:1022E0009445D1D9504602F09FFBABE70020002176
:1022F000064B18605960504602F096FBA2E7C046B4
:1023000040420F00FFFFFF7F541F0020F01100200C
:1023100020A1070030B52B4C85B00021200002F031
:1023200093FB00281CD1284B1A68002A16D0EFF323
:10233000108172B610680028FCD0BFF35F8F0124B3
:102340002248596002781B68D2B20470BFF35F8FD5
:102350000020186081F31088002A17D005B030BD26
:1023600001200021404200F017FC002001F01AFA81
:102370000500200002F058FB002DEFD0144B1B6825
:10238000002BEBD0134A10689847E7E7FEF7ACFD47
:102390000400FEF7C3FFFA220023920012184B41FB
:1023A000802109068B4202D301220B4B52420121AC
:1023B000029100210191094920000091FEF798FD4A
:1023C000CCE7C046541F00202C1F0020741F0020A3
:1023D000B41A0020B81A0020FFFFFF7FCD200010A4
:1023E000D02310B51B0684B01C68FEF77DFDFEF7F8
:1023F0007BFEA04202D0002004B010BD2A4B002179
:1024000000201B7801F076FD28480368002B47D098
:102410000120FEF7F3FAFF23254C264920701840CF
:10242000FEF76EF920780121FEF732F90520FEF75C
:1024300055F9002826D1082200211F48FFF7FAFB92
:10244000FEF752FD0400FEF769FFFA220023920016
:1024500012184B41802109068B4202D30122174BEF
:102460005242012102910021019115492000009161
:10247000FEF73EFD0028BEDB12480121FFF708FDF4
:102480000120B9E70120FEF7D1F80B4B010018003D
:10249000FEF71AFB002205200B49FEF75BF9EBE77C
:1024A000FEF7F6FAB4E7C046504F0010541F002064
:1024B000731F0020152300102C1F0020FFFFFF7F3B
:1024C000CD20001030100020BD20001000487047C3
:1024D000DC4D001000487047884D001010B5040016
:1024E00017480378002B20D0002C06D1154B164836
:1024F0004380063BFF3B038010BD052C19D8134BCE
:10250000A400E0581249002304E001330A8002319C
:10251000132B10D0C25C002AF7D1C0220133DBB2EA
:102520005B00920008481343E5E7112100F01AF818
:10253000DAE70020E0E7CA2303489B00DBE7C04658
:102540005C1F002009040000EC1A0020704D0010F0
:10255000EE1A002010B5024800F0D8F810BDC046B1
:10256000441F002030B54B1E012900D1A7E0664A68
:1025700011780D112C0030349F2900D9A2E004708D
:10258000012B00D1BEE00F21147821400C00303423
:10259000092900D998E04470022B00D1B2E05478A8
:1025A0002511290030319F2C00D990E08170032B38
:1025B00000D1A7E00F2121400C003034092900D9B7
:1025C00087E0C470042B00D19CE094782511290089
:1025D00030319F2C00D97FE00171052B00D191E0B3
:1025E0000F2121400C003034092900D976E04471D4
:1025F000062B00D186E0D4782511290030319F2C9C
:1026000000D96EE08171072B00D17BE00F212140C2
:102610000C003034092966D8C471082B00D171E050
:1026200014792511290030319F2C5FD80172092BB4
:1026300068D00F2121400C003034092958D8447249
:102640000A2B5FD054792511290030319F2C52D8A4
:1026500081720B2B56D00F2121400C0030340929F8
:102660004BD8C4720C2B4DD09479251129003031F0
:102670009F2C00D9073101730D2B43D00F2121402E
:102680000C003034092901D937310C0044730E2B6A
:1026900038D0D1790C11220030329F2900D907326D
:1026A00082730F2B2ED00F220A4011003731092AD6
:1026B00001D830321100C173102B23D01030002309
:1026C000037030BD07345AE737310C0063E7073138
:1026D0006CE737310C0074E707317DE737310C00C8
:1026E00085E707318EE737310C0095E707319DE725
:1026F00037310C00A3E70731AAE737310C00C47269
:102700000C2BB1D1C018DAE7441F002030B50025EA
:1027100089B004000922002101A80095FFF78AFA78
:102720000922002105A80495FFF784FA4B236A4685
:102730006846137004A90D2202F06EF915210822D3
:1027400020006944FFF77CFA09B030BDF8B500F00D
:1027500045F90C23194DFF22AB6705201849FDF7F9
:10276000F9FF184C402200212000FFF763FA4027B0
:10277000002301262121144A66702783A26013607A
:1027800063545F31618445396354104A1049636072
:10279000E2602787A1620B606362E26202F08CF95B
:1027A00080239B052E64EB6490230A4A0120EA50A3
:1027B0008022094B5202DA64F8BDC0460000115075
:1027C000D9040020201B002084001050000110506C
:1027D0008000105010D001000020115010B50121D0
:1027E0000520FDF755FF10BD10B50022002102485D
:1027F00000F014F910BDC046401B0020044B1970B6
:10280000002904D080219023024A8902D1507047C8
:102810006E1F0020002011500B785B0602D14B7810
:10282000052B00D070478A78014B1A60FAE7C04642
:1028300000001150F0B5C646C87800B58007830F78
:102840001800012B60D08F780A794B797F213940AD
:10285000FC091B024E001343334D32195201AA18D2
:10286000977001276740577000275B055B0DD77095
:102870001383D076B846CA00012C32D02B4FBC4609
:102880008F016244BC46AC446746BA604746176055
:10289000002932D0264AC900904662464144516020
:1028A0003F223F339343022837D0224937190A6821
:1028B0007F01D3180B602049EF19FA608B422ED8A4
:1028C00036197601AD19EB7E1C499B064A4013432D
:1028D0008022120613436A681360012080BCB84648
:1028E000F0BD174FBC468F016244BC46AC446746FE
:1028F000BA6247461760002908D1002364012C19E9
:102900006360104BE360E8E70020E7E70B4AC9008B
:102910009046624641445162C2E75B00C5E7FEF75C
:102920000DFFFA68CCE7C046201B00208400105041
:1029300004001050281F0020FF0F105000001050FE
:10294000800010500001105010B502F0B5F810BD15
:1029500010B57F200C0020404000E4091100001950
:102960001A00034B4001C01800F058F8012010BDB8
:10297000201B00207F23180010B508400B420BD00D
:10298000C90980224000074B401840010021C018AF
:10299000120102F089F810BD0223034AC9095B1A2B
:1029A0009366EEE7201B0020002011507F221300C9
:1029B00010B50B400A4200D110BDC9095B005B187D
:1029C00004485B01C018002300220349C37002F0D1
:1029D0006BF8F1E7201B0020FFF7FFFF80220A4B76
:1029E000520410B51A60094B09491A6010000B68AF
:1029F0009843FBD18022002152010648FFF71AF9C3
:102A00000922054B5A6710BD00E0004000F000406D
:102A100008C000400000105000001150002310B505
:102A2000C3820133828283760161040002F02CF8B4
:102A3000002804D080219023074A8902D150200029
:102A400002F02AF8002802D00123237710BD2000CD
:102A500002F012F8FAE7C046002011507047C04655
:102A60007047C04600207047002070477047C0463E
:102A70007047C0467047C0467047C046024B587802
:102A8000431E9841C0B27047C4150020024B18780D
:102A90004007C00F7047C046C4150020F0B5D646A9
:102AA0004F464646C0B5314B07009A461B780E008C
:102AB000FF2B01D0012044E0002941D00021542205
:102AC0002B48FFF7B7F800222A4C2B4B20001A7036
:102AD000FDF7DEFF294B1C60294C2000143CFDF75C
:102AE000E5FF200001F0FAFD264B274D1C60274B27
:102AF000002B2BD02800FFF7BBFA254B2A78186053
:102B000024490024894622490023884610E0434690
:102B10001B6862019B18002B12D05B68002B0FD042
:102B200098472A780134E4B2511C2300A1420FDBFC
:102B3000A242ECD89B1A5B014B445B68002BEFD19F
:102B40000020E0BCBA46B146A846F0BD2A78D7E7D7
:102B50005346310038001F70FFF7F8FD0028EFD012
:102B60003800FFF73BFE0120EBE7C0466410002071
:102B7000C4150020BC1500206F1F0020181600206F
:102B80005C1000201C1600206D1F0020712000101A
:102B900014140020F44E0010F0B5DE4657464E46A1
:102BA0004546E0B5CE4B91B002931B78FF2B00D188
:102BB00038E1CC4BCC4E9B465F46CC4B0DAC0193E1
:102BC000CB4B009335686A69EFF3108172B61368D6
:102BD000002BFCD0BFF35F8FA9612800210001F01A
:102BE000BFFB6A69AB69BFF35F8F0021116083F39C
:102BF0001088002800D115E16378082BE2D89B00EB
:102C0000FB589F466368002BDCD0A0689847D9E743
:102C10007F222179B54D0A405300EB189846C80928
:102C2000804440460123303005799D430571057984
:102C300003339D430571002A00D1FAE04346AD4AB3
:102C40001B7D1278934200D3E9E0AB4A5B01156823
:102C5000ED18002D00D1E5E0A36862792078AD6918
:102C6000A847AFE7A54A1378002B00D1DAE0137824
:102C7000013BDBB213701378002BA3D101229B4DD3
:102C800001212B78042013432B703423EA5C8A4300
:102C9000EA54EA5C8243EA540133EA5C8A43EA5428
:102CA000EA5C8243EA54237800209B4600F0A4FCAF
:102CB000602223791A40602A0DD0402A00D1CAE050
:102CC000DB06DB0E012B00D120E1022B00D1DCE082
:102CD000002B00D1CBE020780021FFF74BFE8021B4
:102CE0002078FFF747FE6DE7804D2B78DB0700D497
:102CF00068E7FFF7C1FE65E7019BDB78DB0700D4DF
:102D000060E76068FFF7ACFE5CE7784D2B78DB0787
:102D100000D457E728780007C00FFFF7ABFE51E754
:102D20002378734999468B46724B734998468A4675
:102D300039001A7847460023B04600254E4689469A
:102D400010E053461B686A019B18002B00D176E007
:102D5000DB68300098473A780135EDB2511C2B0002
:102D60008D4244DCAA42ECD89B1A5B015B44EFE73E
:102D70002378614999465F4B8A4698463100BB46A5
:102D80004E461A7800250023474689460FE05346F1
:102D90001B686A019B18002B55D0DB6830009847F0
:102DA0003A780135EDB2511C2B008D4207DC95427B
:102DB000EDD39B1A009A5B0194466344EDE7019DB5
:102DC000542200212800FEF735FF1022FF214C4835
:102DD000FEF730FF28002022FF2114304E465F46C8
:102DE000FEF728FF00F0FEFBFFF742FEEAE63F4D4C
:102DF000542200212800FEF71DFF1022FF21281D6C
:102E0000FEF718FF28002022FF21143046464F46C7
:102E1000FEF710FF00F0E6FB2379AB70D2E6501C02
:102E2000984213DA11B0F0BCBB46B246A946A046A0
:102E3000F0BDA3686279207800F0F2FBC2E6464656
:102E40004F462A4DE6E74E465F46CBE7284D9B1A94
:102E50005B015D1900E72B4800F0CEFB01215846CD
:102E60000EAAFFF7EBF8002800D0ABE633E7202AE4
:102E700000D156E1002A00D02DE76379092B00D953
:102E800029E7214A9B00D3589F467023217A0B42A1
:102E900000D020E7C80982460F330B405B009846FC
:102EA0001448EB1853441B7D00789946834261D344
:102EB000431C4B4500DA4EE14B461B1A5B01994619
:102EC0000B488144002A00D14AE14B46586900F082
:102ED00093FB4B46012158465B690EAA9847C2E70F
:102EE000641000204C4E00101C160020C415002059
:102EF000F44E00106D1F0020141400206F1F0020DE
:102F0000C81500203D200010704E0010237A0F2BB2
:102F100000D9E0E6D74AEB181B791578AB4236D3D7
:102F2000691C994200DAD6E65D1BD34B6D01ED18A2
:102F3000686900F061FB012158466B690EAA984749
:102F4000002800D03EE66022150023791D401A4279
:102F500000D0C0E663790A3B012B00D9BBE600F044
:102F60004BFB63790A2B00D18EE158460EA900F085
:102F7000CDFA27E6C1485B01006881469944002AE2
:102F800000D1EDE04B46002B00D1A4E69DE7BB4A03
:102F90005B011568ED18002DCAD19CE6A37999460E
:102FA0006B789945E1D06B78002B00D034E14B462B
:102FB0006B70002B00D12CE148460138C0B2FFF7FE
:102FC00089FA002800D17EE143780793022B00D0D4
:102FD00079E10122C179B1468B11491113400A40B0
:102FE000302112015B0113432A78A8468A43134318
:102FF0002B7009239A4682445646BA46C378827893
:103000001B021343C31805939A4B04939A4B0893DE
:103010009A4B09939A4B0A93059BB34200D855E10A
:10302000737801220B2B03D13378F278F61873787A
:10303000042B00D044E1059B00279B1B9BB2069309
:10304000049B0B921D78002303931BE0099A7B01DC
:103050001568ED18002D00D132E1310058462B697A
:10306000069A98478446082803D9069A824200D3D4
:1030700013E1049B01371D78FFB26B1C03979F423D
:1030800000DD1DE1AF42E1D3039B5D1B089B6D0199
:103090009C466544E1E76B780CAA023213705846EF
:1030A00001230EA900F048FA8CE5E3881A0AD8B289
:1030B0000F2A00D90FE673499300CB589F460EA8FC
:1030C00000F0A0FA5846A179FFF78EFB02222B7878
:1030D00013432B7076E5E388012B00D0FBE5082233
:1030E0002B78584693430EA92B7000F00FFA69E530
:1030F000022029780CAB9A1C8B068908DB0F014053
:103100000B431380584602230EA900F015FA59E527
:10311000E388012B00D0DEE508222B7813432B70C7
:1031200023E7237A0F2B00D9D5E5EB181D79514BF6
:103130001B789D4228D2514B6D011B685D19002DF3
:1031400000D1C8E5686900F057FA012158466B695B
:103150000EAA984787E6002A00D0BCE500239946CE
:1031600062790220130003928343012B15D0002AB9
:1031700000D0B0E52B004344534430331B790CAAF4
:103180009B07DB0F0232BCE75A1CAA4200DAA2E519
:10319000ED1A394B6D01ED18D4E7E388002B11D1FE
:1031A000012A25D0029B1878FFF7E4FB4346022151
:1031B000EB18534430331A790A4301211A711A79F2
:1031C0000A431A714B46002B00D1FBE4586900F00A
:1031D00013FA4B4601215B690EAA58469847002016
:1031E00000F00AFA3523EB5CDB0700D5EAE4BCE625
:1031F000029B1878FFF7DAFB43460221EB18534491
:1032000030331A798A431A711A7903998A431A71E9
:10321000D8E7FFF72DFCA8E600215846FFF7EEFAA5
:103220005846FFF791FBAB78134903930491114B78
:10323000124998461A780591002329001D008A46F4
:1032400010E0059B6A011B689B18002B57D0DB68B8
:103250005846984743461A780135EDB2511C2B0069
:103260008D4238DC9542ECD39B1A049A5B0194465C
:103270006344ECE76D1F0020F44E0010141400208E
:10328000D8150020984E00100CAB9A1C584601230C
:103290000EA9157000F050F994E40B9A012A4FD052
:1032A000002A3CD00023B07804E00133DBB20F7178
:1032B000934234D21918C9B241440D79FF2DF4D08C
:1032C0004E464546574600236B7004E54E4657462A
:1032D000FFF7CCFB49E65546542200212800FEF7B3
:1032E000A9FC1022FF21281DFEF7A4FC28002022A3
:1032F000FF211430FEF79EFC039BAB7057E655464A
:10330000FAE7FEF797FE021E00D1E4E4D378917845
:103310001B020B4358460EA900F00EF9A3E56546C3
:103320003B002A0031000A9800F08AFEAC46049B5C
:10333000039A1B7866440133934200DB6CE6BFE7D7
:10334000164B29699942ADD1079AABE7FFF78AFB83
:10335000021E00D1BFE4584613780EA900F0ECF825
:1033600081E52189FFF7BAF8021EF4D1B3E4022AFD
:103370000FD0FFF779FB021EC8D1ACE4FFF7A6F827
:10338000021E00D1A7E4122358460EA900F0D4F87B
:1033900069E5FFF79FF8021EB8D19CE4013A0010DE
:1033A000F8B557464E46DE4645460C00E0B51600D9
:1033B0001F00002A3CD01F4B00259A4670239946D7
:1033C0001D4B9B4617E05B462000997800F0FAFD04
:1033D00000281FD021004046FFF72CFA002819D002
:1033E000A378DA09012A1CD00A9A013513702378D0
:1033F000E418B5421CDA6378052B0BD1E3789B0700
:103400009B0FBB4206D153464A461B789846A37889
:103410001A42D8D00020F0BCBB46B246A946A0460E
:10342000F8BD0B9A013513702378E418B542E2DB3E
:103430000120F0E764100020C4150020702270B550
:10344000094B0C001D788B781A4201D0002070BD0A
:10345000064B2000997800F0B5FD0028F6D0210039
:103460002800FFF7E7F9F2E764100020C4150020F8
:103470000B007F2010B51840DB0934334000044AAC
:10348000C018044B1168C01800F058FD10BDC046AC
:1034900018160020C41500200B007F2010B518401E
:1034A000DB0934334000044AC018044B1168C018CB
:1034B00000F06CFD10BDC04618160020C415002099
:1034C00070B57F240F480C4064000419CD096419BD
:1034D00030342079C00701D5002070BD0126257940
:1034E0000948354300782571FFF732FA0028F4D1F6
:1034F0000122237993432371237903329343237168
:10350000EAE7C046C41500206410002070B5094CDD
:103510000600082220000D00FEF792FB0023802108
:10352000E360A3602B783000994300220023FFF76B
:10353000C7FF70BDA4150020F8B5CE46474690469B
:10354000264E80B58146082230000D001F00FEF790
:1035500077FB4346B3600023F381EC79AB79240217
:103560001C43231CBC4200D93B1C9FB2B381002CDE
:103570000ED0002F18D04346002B2CD03B1C402FE0
:103580001BD89FB233787F2B1CD80021144A0FE040
:1035900080212B780022994348460023FFF790FFB3
:1035A000C0BCB946B046F8BD7F23002231789943AC
:1035B0003B004846FFF784FFF2E740239FB2337891
:1035C0007F2BE2D9064C3A0041462000FEF738FB3B
:1035D00080212200ECE70020E2E7C046A41500208D
:1035E0006415002010B5142200210248FEF722FBCA
:1035F00010BDC046A4150020014B18617047C0469D
:10360000A415002010B5054C010008222000FEF78B
:1036100017FB0023A360E36010BDC046A415002083
:1036200070B5384C1D0023780600DA09C9098A42B2
:1036300010D00020002D00D070BD21003000FFF719
:10364000EBF82369002B03D02200032130009847B8
:103650000120F1E77F2B06D8A068002834D02A008B
:103660002949FEF7EDFAE289A1685219E38892B27E
:103670004919E281A160934214D03F2D12D9A38948
:10368000981A051C80B240282AD82078ADB27F282D
:1036900028D800219A4232D01B4A2B003000FFF775
:1036A0000FFFC9E72369002B05D02200022130005B
:1036B000984700280AD080212378002299433000BF
:1036C0000023FFF7FDFEB7E70020B5E7002130003B
:1036D000FFF750F930008021FFF74CF90120ABE7EC
:1036E0004025D2E79A4207D0074C2A002000FEF777
:1036F000A7FA80212200D0E780210022CDE7002216
:10370000CBE7C046A41500206415002070B5050065
:10371000FFF7B4F9002800D170BDFFF7B7F9002812
:10372000FAD1C8236B43124CE618F1780029F3D084
:1037300010331C19200000F0FDFD3F28ECD90020BB
:10374000F178FFF795FE0028E6D0200000F0F2FDAA
:103750003F2808D9074BEA01D218F178402300200E
:10376000FFF7AEFED8E7F1780020FFF795FED3E72C
:103770009C1400201814002010B50400FFF77EF9F7
:10378000002801D1002010BDFFF780F90028F9D1F1
:10379000C8226243024B01309B181B791840F2E7A4
:1037A0009C140020C82310B543430248181800F0A9
:1037B000A3FD10BDAC140020F0B5C824C64680237C
:1037C00044431F4F1034050000B53C195B029A4278
:1037D00000D31C4A200092B200F010FE8046FFF792
:1037E0004DF9002803D1404680BCB846F0BDFFF734
:1037F0004DF90028F7D1C8266E43BE19F378002B87
:10380000F1D0200000F096FD3F28ECD90020F1789F
:10381000FFF72EFE0028E6D0200000F08BFD3F28A9
:1038200008D9094BEA01D218F17840230020FFF7AC
:1038300047FED8E7F1780020FFF72EFED3E7C04619
:103840009C140020FFFF000018140020F8B50600AB
:10385000FFF714F9002801D10020F8BDFFF716F991
:103860000028F9D1C82474432500134F2435ED19DD
:10387000280000F041FD0028EED03F190020B97863
:10388000FFF7F6FD0028E7D00C4BF401E418210007
:103890002800402200F0B2FDB978051E08D00300D0
:1038A00022000020FFF70CFE0028D5D02800D4E726
:1038B0000020FFF7F1FDCFE79C14002058140020F2
:1038C00070B5C82444430C4B0500E41880235B0208
:1038D0009A4200D3094A200092B200F047FE060047
:1038E000200000F009FD3F2801D8300070BD2800FD
:1038F000FFF7ACFFF9E7C046C0140020FFFF00004F
:10390000C82310B543430248181800F013FD10BD3A
:10391000C0140020F0B50025184C83B0C822002147
:103920002000FEF787F9164B21001D70FF236371FD
:10393000E1235B02A360200008234022A3733831F7
:103940000095073B103000F0A1FC27000123210067
:1039500020002600402278310093B837243000F050
:1039600095FCC0363800FDF793F83000FDF790F86D
:10397000E56127622663656303B0F0BD9C140020F7
:10398000981400200A4B196B1A6A002909D0002AE2
:103990000CD000221A621A63DA6100225A630120F5
:1039A0007047002AFBD0D9611962F8E71A63F4E77F
:1039B0009C14002070B50F4C052200212000FEF75A
:1039C00039F90D4D2B78DA0707D50C4C9B070CD530
:1039D0000121200000F0A2FE70BD2000103000F098
:1039E0007DFE2B78054C9B07F2D4200000F076FE7C
:1039F000EEE7C0469C14002098140020C01400205C
:103A0000F0B54B79060083B0022B02D18B79022BE3
:103A100003D00025280003B0F0BD214FBB78002B58
:103A2000F7D18B7809253B700C780C196378242B1F
:103A30000BD1082A02D80FE0AA420DD32378E4184C
:103A40005D196378ADB2242BF6D0052B08D0042B7A
:103A500002D163790A2B11D00020FFF757FED9E776
:103A600021003000FFF7EAFC0028D2D0A3787B7059
:103A700023785D19E4186378ADB2E8E7094B27783D
:103A8000019301330093022202233000E119FFF772
:103A900087FC0028BDD00E35ED19ADB2DCE7C0467D
:103AA0009C1400209E140020F8B5602314001278A6
:103AB000050013400020202B07D1304A6379277975
:103AC00016781B023B439E4200D0F8BD6378222B40
:103AD00028D007D8202B17D0212BF6D1012944D08C
:103AE0000120F2E7232BF0D1012938D00329F7D1A7
:103AF000234B002BF4D0E178A3780902002019436E
:103B000000E000BF0120E0E701292ED00329E7D122
:103B10001C4B002BE4D0083200201100FEF7AEFA57
:103B20000120D2E701291AD00329D9D101252E007D
:103B3000A378E478023924021C431471264024320D
:103B40001000714000F0EAFD0F4B002BC8D0620856
:103B5000002031002A4000E000BF0120B5E721002D
:103B60002800FFF7D3FC0120AFE70723210028003E
:103B7000064AFFF7E1FC0120A7E7C0469C1400209D
:103B8000000000007D20001000000000A4140020B0
:103B9000F0B54F464646D646364DC0B5EA781F00CA
:103BA00080460C00AB788A423BD08B4210D000207C
:103BB000E0BCBA46B146A846F0BD2F4B002B04D05E
:103BC0002E4800F0AFFB002851D00020FFF79EFDEB
:103BD000AB78A34201D00120EAE7294B002B02D0A9
:103BE000002000E000BF0020FFF730FE0028F2D1E7
:103BF000244C200000F080FB0028ECD1002FEAD0FC
:103C0000BF06E8D1243C4046A178FFF731FC0028EC
:103C1000E1D0002300224046A178FFF751FC0120AB
:103C2000C6E710239A46184EAA4431005046BAB24D
:103C300000F09CFC154B002BBFD06B79FF2BBCD048
:103C4000002FBAD0F219914603E00136B145B4D045
:103C50006B7932789A42F8D1504600F063FB002825
:103C6000F3D15346103B597900E000BFEDE700E087
:103C700000BFAAE79C14002000000000AC14002044
:103C800000000000C01400201814002000000000F4
:103C90009322F0B5134C85B0002120009200FDF76F
:103CA000C9FF23002000802640270F4D4D337600AA
:103CB000FF3329300295009300220023002103974F
:103CC0000196FF3000F0D6F94035201D283400233E
:103CD00001220021039702950196009400F0CAF991
:103CE00005B0F0BD68170020E816002010B5054C9F
:103CF000200000F0F5F920002538FF3800F0F0F939
:103D0000012010BD9018002070B5084C002520003F
:103D10003130FF30257000F0E1FC20000C3000F065
:103D2000DDFC2A23FF33E554657170BD6817002060
:103D3000F8B557464546DE464E46E0B54B798046D7
:103D40000F00FF2B27D1424B0C7899462A23494676
:103D5000FF33CB5C002B1ED14E79002E1BD1BB78DC
:103D60003C190B703B79002B12D098235B004B441D
:103D70009A460C234B449B46A5186378052B05D126
:103D800010E02378E4186378052B0BD0AC42F8D30D
:103D9000E01B80B200E00020F0BCBB46B246A94662
:103DA000A046F8BDA542F3D921004046FFF746FBE7
:103DB0000028F0D0A3780136F6B2DB09012B29D018
:103DC000504600F08BFC2A234946A278FF33CA54A0
:103DD000637922791B0213431E4A5B0594465B0DEF
:103DE000942163445A4253414A4602204900525C9E
:103DF0005B00824313434A465354514640460839B8
:103E000000F0D6F90028C6D02378E4183B79B342F5
:103E1000B3D8BDE7584600F061FC5A46A3780C3A87
:103E20005371637921791B020B430A495B058C4668
:103E30005B0D634459424B41022011795B00814381
:103E40000B43594600200839137100F07FF9DBE776
:103E50006817002000FEFFFF70B505002A201F4CE8
:103E6000FF30205C1E006379884203D000208B4223
:103E70001DD070BD9A235B00E35A002B0DD1184B67
:103E8000002B04D000201749B2B200E000BF280088
:103E9000154900F08DF90120EBE720009623313021
:103EA0005B00E158B2B2FF3000F060FBE7E70F4B78
:103EB000002B04D031040020090C00E000BF0C4CA2
:103EC0002800210000F042F90028E4D1320021004E
:103ED000280000F007F90120CBE7C0466817002052
:103EE00000000000E81600209018002000000000EC
:103EF0006C17002000B5030083B0002910D000200B
:103F0000012B07D80A78002A04D00B48C25401209C
:103F1000012A01D003B000BD1800FEF7BFFDF9E78C
:103F2000012301A900200B80FEF7B8FD0028F1D085
:103F30000122014B1A70EDE7B8150020037870B527
:103F4000DB0704000E00DD0F002B17D103785B07A1
:103F500001D5280070BD01213000494200F07CFDF0
:103F60002378DB07DD0F002B0AD123785B0708D409
:103F70000422237801251343237002E00025E8E79B
:103F80000025300000F050FDE3E7C04670B50C009E
:103F9000012106004942200000F05EFD33785B07F6
:103FA000DD0F002B04DB200000F03EFD280070BD7B
:103FB0003378DB0704D40422337893433370F2E779
:103FC0000025F0E7437902791B0213435B055A0D84
:103FD000C3789B079B0F022B05D0032B15D0002025
:103FE000012B08D0704702291ED0002040239342A5
:103FF0004041C0B2F6E702394B4259410D4B9C4655
:10400000614491424041C0B2ECE702394B1E9941F4
:10401000094B494219408023DB009C460020614443
:1040200091424041C0B2DDE7044BD01843425841B1
:10403000C0B2D7E7FF03000040FCFFFF00FEFFFF18
:104040008A1870B5914207D27F264C78052C04D08F
:104050000C7809198A42F8D870BD34008D782C404C
:1040600064000419ED0963550C7809198A42ECD8EB
:10407000F2E7C046F0B5C64600B582B0150008AA02
:1040800040CA040017880BAA1288012090460A0033
:104090002178024081432000114321703A000093AF
:1040A00031000123083000F0F1F8002E01D0002F7C
:1040B00008D10A9B012063604346638002B080BC44
:1040C000B846F0BD26001C363000FCF7E1FC0023AA
:1040D000002D01D0330000266361A661E9E7C046E8
:1040E00001207047F8B502240B7807001C4063429A
:1040F0005C41144B64421C40134B08009C46083042
:104100000D001600644400F0F7F8002807D1002ED7
:1041100005D0344203D101242B781C4201D0002069
:10412000F8BD38006978FFF7A3F90028F7D02B789D
:104130001C42F4D10023002238006978FFF7C0F94F
:10414000EEE7C04640FEFFFFFF010000F8B50D009E
:104150000835060028000C0000F0CEF8002803D037
:10416000012723781F4201D00020F8BD300061787C
:10417000FFF77EF90028F7D028006288616800F018
:104180003DF92378051E0BD01F42EDD10300626874
:1041900030006178FFF794F90028E5D02800E4E7C3
:1041A0001F42E1D130006178FFF776F9DCE7C046C5
:1041B000F8B5CE46474680B58B8905000C00002B2C
:1041C00008D101260B781E4240D00020C0BCB94661
:1041D000B046F8BD0B789B0734D5FE2380261B0222
:1041E0009946B60027000837380000F0A3F8864249
:1041F000EBD80122237890461A42E6D12800617854
:10420000FFF736F90028E0D0380000F093F8864236
:1042100031D84146237862881942D6D14B460340B3
:104220001E1C934200D9161CB6B200226178002EE3
:1042300000D0626833002800FFF742F90028C4D09C
:104240003000C3E7104B40269946CBE74978FFF78B
:104250000FF90028B9D0227863881642B5D1002220
:104260006178002B00D062682800FFF729F9002848
:10427000ABD06088AAE7424623781A42A5D128002D
:104280006178FFF709F9A0E7C0FF0000F0B5C64666
:1042900000B5040006A805788020884617001E0097
:1042A0000002824226D8E068002803D0012149425A
:1042B00000F0D2FB2069002803D00121494200F020
:1042C000CBFB4346236073045B0CED031D430023CB
:1042D000E0686381A780E5802381002801D000F099
:1042E000A3FB2069002801D000F09EFB012080BCC8
:1042F000B846F0BD0020FAE710B5048941898288EC
:10430000A3B288B28C4207D31B1A9BB2101C9A42EC
:1043100000D9181C80B210BD5100091A5B189BB25D
:10432000F4E7C04603894089181A43425841C0B295
:104330007047C04610B5048941898288A3B288B20B
:104340008C4207D31B1A9BB200209A4201D9D21A81
:1043500090B210BD5100091A5B189BB2F4E7C04639
:1043600070B5040000690E00002803D00121494205
:1043700000F072FB25896089A288A9B283B28542C8
:104380002BD3CD1AADB2002D2DD0AA4208D2914226
:104390002FD3891A8BB263819A4203D89B1A9BB29E
:1043A0009A42FBD9E28821685204520C53433000F0
:1043B000C918FDF745FC63890125591C89B2A288FB
:1043C0008B4212D95200891A89B220696181002872
:1043D00001D000F029FB280070BD5500ED1A4D19E1
:1043E000ADB2002DD1D1618989B252009142ECDB8E
:1043F000E9E789188BB26381CEE7C046F0B546463F
:104400004F46D646C0B5060000698946904600284A
:1044100003D00121494200F01FFB31897289B58820
:104420008BB294B2914254D31F1BBFB2002F4AD01B
:10443000BD4205D2AB4251D25B199CB22F007481B0
:104440004346B8453DD89FB2A54203D8641BA4B2E9
:10445000A542FBD9F28831685204520C904662435F
:104460002B1B9BB2891842469F4225D953439BB2CE
:104470001A0048469A46FDF7E3FB434648467D1B33
:1044800064195C4331685044A2B2FDF7D9FB7189CD
:10449000B588CB199BB26A00994216D99B1A9BB278
:1044A00030697381002801D000F0BEFA3800E0BC0A
:1044B000BA46B146A846F0BD48467A43FDF7C0FB70
:1044C000E5E73B1CBFE773899BB26A009342E7DBD9
:1044D000E4E76F003F1BDF19BFB2A7E75B1B9CB28D
:1044E000ACE7C046F8B50400C0680E00002803D051
:1044F0000121494200F0B0FA258920896189A2880A
:10450000ADB283B28FB2884228D3DB1B9BB29A42F2
:1045100009D8E779FF0906D1E068002801D000F04A
:1045200083FA3800F8BD2B00954203D39B1A9BB247
:104530009342FBD2E28820685204520C534331006C
:10454000C018FDF77DFBA2886B1C9BB252009D42F8
:1045500009D99B1A9BB201272381DDE75100C91BB2
:104560005B189BB2D3E79342F5DBF2E7F0B5454623
:10457000DE4657464E46E0B588460500140083B037
:10458000002A6FD0C068002803D00121494200F002
:1045900063FA2E89EB796A89B6B292B2DB0940D10F
:1045A000AB88964267D259008A1AB21892B2002795
:1045B000934230D99A1A171C92B2A24200D9271CF2
:1045C000EA88BFB25204520C9146F21992B2924656
:1045D000FA1A92B2934634009E4203D3E41AA4B26C
:1045E0009C42FBD24A46624328681B1B9BB2801840
:1045F0004A46BB4253D341467A43FDF721FBAB8881
:104600005B00564501D89A4503DB5246D31A9BB24C
:104610009A4653462B81E868002824D000F004FA1B
:1046200021E0AF88BC4229D296424AD3B31A9BB24A
:1046300079001B198B4208DBD3199BB21E1BB6B243
:104640009A46B24242D9761AB6B2EB885B045B0C4A
:104650009946A3199BB29A46E31B9BB29B463B002B
:104660002700B8E70027380003B0F0BCBB46B246CD
:10467000A946A046F0BDB21A92B298E7002FCAD060
:10468000EB88E41B5B045B0C5C4399461600D31972
:1046900000229BB29A4693463B00A0449BE75343BB
:1046A00099B20A0001915C444146FDF7C9FA220023
:1046B0004B465A430199286892B24144FDF7C0FA2B
:1046C0009DE779008B1AF3189BB2B2E7B142BADDCD
:1046D000EB885B045B0C9946BEE7C04610B504004E
:1046E000C068002803D00121494200F0B5F92069D3
:1046F000002803D00121494200F0AEF90023E06810
:1047000063812381002801D000F08EF92069002800
:1047100001D000F089F9012010BDC04670B5040039
:10472000C0680D00002803D00121494200F094F92F
:104730002069002803D00121494200F08DF97F2132
:10474000E379ED011940E0682943E171002801D0C7
:1047500000F06AF92069002801D000F065F9012015
:1047600070BDC046F0B55746DE464E4645468846C3
:10477000E0B583B006000524FBF7C6FE4346844639
:104780001C571879364B374AF3181B0D9B0092467D
:10479000D75801228240013A002C42DB2021091A1D
:1047A0008C423BDC1100A14025000F4236D141462E
:1047B000096889464146897900294DD1AA40934626
:1047C0003A423FD18021890100228846002816D034
:1047D0006146A44634004E469946030001915100BB
:1047E000705A404500D24019A9181231890001328F
:1047F00008519A42F3D3019B64469C464B465A4665
:1048000017435246D7506046FBF78AFE200003B09C
:10481000F0BCBB46B246A946A046F0BD01246442A6
:10482000F1E72024241A0DD41100A14025008B4665
:10483000394205D109E01100A14025000F42B6D050
:10484000013CF8D209246442DDE7424612689146F1
:1048500042469279002AB5D014246442D3E7C04678
:104860000000E0AFE0160020F0B54E464546DE46BB
:104870005746E0B583B089460CA984460D781F2AB7
:1048800045D84946490088464944C900461837007A
:104890003400DC373868CC3483462068310001901E
:1048A0001C4880248246A40251440C6069424D4158
:1048B0001E216D428D4318498A465544052B0CD95B
:1048C000A0201F214005D836540104430532053B82
:1048D0003C600A403560052BF6D852019B06134315
:1048E00042464A44D20062441000DC3213600300A6
:1048F000D8331D605B461360019BCC300360002001
:1049000003B0F0BCBB46B246A946A046F0BD0520A8
:104910004042F5E7CC3000009FE00000F0B50125F3
:104920008D400468AC430460002B2ED04D006C1801
:10493000E400041926001F68C83637609F680436F3
:1049400077605F68DB68DC34376023606B18184D74
:10495000DB00AC468025C41864442D062560256024
:10496000144C0D1D8C40846001242600AE4080252F
:1049700008318C401F21AD014519C0180A40D830BC
:104980002E602C6002600020F0BD4D006C18E40029
:10499000041926008027C8367F023760C0273F03EE
:1049A000B760F82704367F02DC3437602360CDE738
:1049B000D01000000101010110B583070AD00300E7
:1049C000032102E001330B4205D01A78002AF9D105
:1049D000181A10BD030019680C4A0D4C8A188A4336
:1049E00022420FD15968094A04338A188A43224265
:1049F00008D15968054A04338A188A432242F1D003
:104A000000E001331A78002AFBD1E1E7FFFEFEFE49
:104A100080808080F8B5C04601B40248844601BC5D
:104A2000604700BF0903002001B40248844601BC6E
:104A3000604700BF2D02002001B40248844601BC3B
:104A4000604700BF210F002001B40248844601BC2A
:104A5000604700BFC100002001B40248844601BC89
:104A6000604700BF9D01002001B40248844601BC9C
:104A7000604700BF0101002001B40248844601BC28
:104A8000604700BF910C002001B40248844601BC7D
:104A9000604700BFD90B002001B40248844601BC26
:104AA000604700BF010C002001B40248844601BCED
:104AB000604700BF410C002001B40248844601BC9D
:104AC000604700BFD9030020711700109D17001028
:104AD00091190010251C0010ED190010951B0010F5
:104AE000B9180010B9170010D9170010ED170010F1
:104AF000390A0010F51700100D0E001039170010BC
:0C4B00006D06001055250010FD0200108D
:104B0C0072756E6E696E67001C4B001004FF00001E
:104B1C0021622311001442A40A2A2A2A2050414E51
:104B2C004943202A2A2A0A000A0000004E6F2073EB
:104B3C0070696E6C6F636B73206172652061766156
:104B4C00696C61626C6500004E6F20757365722034
:104B5C00495251732061726520617661696C6162A2
:104B6C006C650000486172647761726520616C61EC
:104B7C00726D20256420616C726561647920636CB0
:104B8C0061696D6564000000486172642061737333
:104B9C006572740052656C6561736500626F6F7449
:104BAC00325F77323571303830000000322E322EC1
:104BBC00300000007069636F0000000068656C6C69
:104BCC006F5F7069636F0000417072202032203279
:104BDC003032360006005250D3F07542A04B001014
:104BEC0006005250E182887FA84B001006005250FC
:104BFC00ABB36053B84B001006005250BBFF3CB631
:104C0C00C04B001006005250861C0302C84B00100B
:104C1C00060052505422A29DD44B00100500525055
:104C2C00DE65F468045F00100D0A0000000000004F
:104C3C009D1F001000000000A11F0010AD1F0010F0
:104C4C00D91F0010D51F0010000000000A00000042
:104C5C0000000306A6000800020002009C001400DD
:104C6C00030057494E55534200000000000000005D
:104C7C00000080000400010028004400650076005C
:104C8C0069006300650049006E00740065007200E5
:104C9C006600610063006500470055004900440050
:104CAC0000004E007B0062006300370033003900C7
:104CBC003800630031002D003700330063006400BE
:104CCC002D0034006300620037002D0039003800DD
:104CDC00620038002D0039003100330061003800CB
:104CEC0066006300610037006200660036007D00DC
:104CFC0000000000050F2100011C100500DF60DD25
:104D0C00D88945C74C9CD2659D9E648A9F00000340
:104D1C0006A600010000000055534220737464691C
:104D2C006E202F207374646F75740000060052504F
:104D3C0053B4F4A1244D0010526173706265727209
:104D4C0079205069000000005069636F000000007A
:104D5C00426F6172642043444300000052657365E6
:104D6C007400000000000000444D0010544D001071
:104D7C005C1F00205C4D0010684D001009025400AF
:104D8C00030100807D080B000202020000090400F0
:104D9C000001020200040524002001052401000189
:104DAC0004240206052406000107058103080010EF
:104DBC0009040100020A000000070502024000007D
:104DCC00070582024000000904020000FF000105F3
:104DDC0012011002EF0201408A2E0A0000010102AA
:104DEC0003010000556E68616E646C656420495265
:104DFC005120307825780A006570202530325820F3
:104E0C0077617320616C7265616479206176616988
:104E1C006C61626C6500000043616E277420636FE7
:104E2C006E74696E75652078666572206F6E206988
:104E3C006E61637469766520657020253032580088
:104E4C00C42B0010202D0010702D0010F82C001019
:104E5C000A2D0010E82C0010642C0010102C0010EF
:104E6C00042C0010F0300010D6300010D62C00109E
:104E7C0010310010D62C0010BE300010AA300010DB
:104E8C00D62C0010963000109C2F0010D62C001041
:104E9C007C3300106E33001062330010D62C0010DF
:104EAC00D62C00104C3300106E330010D62C001092
:104EBC00D62C0010D62C0010D62C0010D62C00109E
:104ECC00D62C0010D62C001002330010620D0020DE
:104EDC00620D0020AC0D0020CC0D0020100E002027
:104EEC00220E0020580D0020000000001539001083
:104EFC0085390010B5390010013A0010A93A00109C
:104F0C00913B00100000000000000000913C0010DC
:104F1C00ED3C0010093D0010313D00103D2000100B
:084F2C00593E001000000000D6
:104F3400E04B0010EC4B0010F84B0010044C001038
:104F4400104C00101C4C0010284C0010384D001060
:104F540003000068EFF3108C72B60268002AFCD0DC
:104F6400BFF35F8F04229A56002A04DB002900D085
:104F74000A60002004E0D0220120120612681A718F
:104F84001B68BFF35F8F00221A608CF31088704790
:104F9400F0B5C646150000B504001E000268EFF324
:104FA400108172B61368002BFCD0BFF35F8F04230B
:104FB400E356002B2DDB2268BFF35F8F00201060C7
:104FC40081F31088D0221206127852B290469A4287
:104FD40003D1002080BCB846F0BD00270BE0236855
:104FE400BFF35F8F1F6081F310882800310000F049
:104FF40013FF0028EDD12268EFF3108172B6136815
:10500400002BFCD0BFF35F8F23797F2BE7D9434676
:1050140002E0D0231B061B6823712368BFF35F8F54
:1050240000221A6081F310880120D3E7F0B5C64648
:1050340000B50D00040000F0DFFEFA2206000F00A8
:10504400002328000021920000F0BEFE80233618C1
:105054004F411B069F4202D30126174F7642D023AD
:105064001B061B68002598460BE02368BFF35F8F7F
:105074001D6081F310883000390000F0CDFE002857
:1050840018D12268EFF3108172B61368002BFCD09C
:10509400BFF35F8F23797F2BE7D9434623712368BE
:1050A400BFF35F8F00221A6081F31088012080BC57
:1050B400B846F0BD0020FAE7FFFFFF7F0268EFF378
:1050C400108172B61368002BFCD0BFF35F8FFF23EF
:1050D40003710368BFF35F8F00221A6081F31088A5
:1050E40040BF704710B5084C2378002B0AD18023A9
:1050F400064807495B051A68C25004338B42FAD14B
:105104000123237010BDC046701F0020B419001085
:105114000001001010B5014B984710BDB5190020CF
:10512400064B5A6802609A684260DA6882601A69BB
:10513400C2605A6902619B69436170470000024082
:105144000268064B5A6042689A608268DA60C268F4
:105154001A6102695A6142699A617047000002400B
:10516400034B1A68C0239B009343024A13607047A1
:105174000C8001400C900140054B1A6880239B0071
:105184005340C02292001340024A13607047C04645
:105194000C8001400C9001401423F0B5D6464F46D4
:1051A40046469A46C0B581461888043386B0984668
:1051B4000E001B8829491400984753460700188895
:1051C400434627491B889847534605001888434699
:1051D40024491B8898478046FFF784FF6846FFF7F9
:1051E4009FFFB847A847FFF7C7FF221E20D0C02162
:1051F40008270220490511E0002C14D0131B0D2BA5
:1052040024D9002D0AD02300002A05D00B6E013AC0
:105214003370130001362343002B09D03D008B6A01
:105224001D401842E8D1002DEDD123001343F5D1E0
:10523400FFF796FFC047FFF76DFF6846FFF780FF53
:1052440006B0E0BCBA46B146A846F0BD4B461B7852
:10525400013C0B6601239C46E144E4E74946000017
:1052640045580000464300000022154B10B59A60D3
:10527400DA601A615A619A61DA611A625A629A6250
:10528400DA621A635A639A63DA631A645A649A6430
:10529400DA641A655A659A65DA651A665A669A6610
:1052A400DA661A675A679A67DA67F0329200002161
:1052B400044800F099FD044B044A1A6010BDC0462E
:1052C40000001050601B0020281F00208001105097
:1052D400F0B54F46D6464646C0B5204B84B09F6DC8
:1052E400002F23D01E4B00249A46012399461D4BC0
:1052F4000126984604E001347600E4B2202C15D04F
:105304003E42F8D053469E654B4665086D00A34364
:10531400ED186D014544280000F038FC00280BD13D
:105324000134B743E4B27600002FE7D104B0E0BC07
:10533400BA46B146A846F0BDEB8AE02103930023A8
:1053440001A8AA78C900018001210271437100F00B
:105354003DFC280000F0B6FBE2E7C0460000115017
:1053640000301150201B00209823F0B5C646CA4ACD
:1053740000B5D55880232C009B02102684B01C4015
:105384001D4273D0C54BC64C9A6AC64B00261A60A0
:105394003B23E35C022B00D1F5E07B23E35C022B8F
:1053A40000D1D7E1BB23E35C022B00D1C7E1FB238F
:1053B400E35C022B00D1B7E13C23FF33E35C022B17
:1053C40000D1A5E17C23FF33E35C022B00D193E100
:1053D400BC23FF33E35C022B00D150E1FC23FF33F9
:1053E400E35C022B00D13DE1AF4BE35C022B00D127
:1053F4002CE1AE4BE35C022B00D11BE1AC4BE35C34
:10540400022B00D10AE1AB4BE35C022B00D1F9E0A3
:10541400A94BE35C022B00D1E8E0A84BE35C022B30
:1054240000D1C9E0A64BE35C022B00D19DE1A54B62
:10543400E35C022B00D1B4E1002E08D1A24B1B780F
:10544400002B04D18021A14A90338902D150C0227B
:10545400914B01A89B6C92005B055B0D012180249C
:105464000280436000F0B2FB994EA402EB0600D523
:1054740085E080235B021D421DD0894F1C43BB7E07
:10548400002B2BD10133FB70203701239846BB7EC0
:105494000126002B25D1FE70C02301A8DB008D4A14
:1054A400038002AB42CA42C3012100F08FFB802279
:1054B400864B92021A6580235B011D422CD1802306
:1054C400DB011D423FD180231B021D424AD1AC4265
:1054D40000D0E3E104B080BCB846F0BD002302264E
:1054E400984600F069FC01285ED8C02200213800EB
:1054F400920100F0EDFA380000F0E4FA00F05CFCF0
:10550400012802D9714B5E661E660123FB70434677
:10551400012BC1D02037B8E700261C435E4B1E6028
:10552400FFF7A2FE80236A465B0093801672012176
:1055340001A800F04BFB8022644B12031A65802300
:10554400DB011D42BFD01C43802301A8DB00038084
:10555400012100F03BFB10225C4B1A6580231B02E7
:105564001D42B4D01C43A02301A8DB000380012109
:1055740000F02CFB8022554B12011A65A7E7FFF7B8
:10558400A7FE340075E73833E65C002E00D104E74B
:105594000233E25C002A00D1FFE620000022203022
:1055A400E25400F0BDFAF8E64B4B3B4A1E66536EDC
:1055B40033409E42FBD198E7484BE75C002F00D173
:1055C40030E70233E25C002A00D060E13C4BE35C4C
:1055D400022B00D1DBE03B4BE35C022B00D036E72F
:1055E4003F4BE35C002B00D0E0E030E73D4BE75C51
:1055F400002F00D111E70233E25C002A00D03EE123
:105604003E000AE7384BE75C002F00D100E7023385
:10561400E25C002A00D02AE13E00F9E6334BE75C65
:10562400002F00D1EFE60233E25C002A00D016E13D
:105634003E00E8E62E4BE75C002F00D1DEE60233A5
:10564400E25C002A00D002E13E00D7E6294BE75C89
:10565400002F00D1CDE60233E25C002A00D0EEE058
:105664003E00C6E6F933FF33E75C002F00D1BBE60A
:105674000233E25C002A00D0D8E03E00B4E6B9333D
:10568400FF33E75C002F00D1A8E60233E25C002A76
:1056940000D0C2E03E00A1E60000115000400540E9
:1056A400201B0020181B00203B0200007B0200008E
:1056B400BB020000FB0200003B0300007B03000070
:1056C400BB030000FB0300006E1F002000301150DC
:1056D4001000020000001050002011507A03000056
:1056E400FA0300003A030000FA020000BA020000C4
:1056F4007A0200003A0200007933FF33E75C002F9E
:1057040000D165E60233E25C002A7DD13E005FE60B
:105714003933FF33E75C002F00D153E60233E25CF8
:10572400002A68D13E004DE6F833E75C002F00D133
:1057340042E60233E25C002A55D13E003CE6B8332F
:10574400E75C002F00D132E60233E25C002A42D14A
:105754003E002CE67833E75C002F00D122E60233CA
:10576400E25C002A2FD13E001CE64F4BE35C002B89
:1057740000D15CE6EF239B00E25C002A00D12AE71B
:105784000022E2541C3BE01800F0CAF923E7464B20
:10579400E35C002BEED1454BE35C022B00D056E6D4
:1057A4003E00434BE35C002B00D145E6FF239B0006
:1057B400E25C002A00D14AE60022E2541C3BE018D5
:1057C40000F0AEF943E6200000226030E2543E00CF
:1057D40000F0A6F9E6E520000022A030E2543E00E5
:1057E40000F09EF9E3E520000022E030E2543E00A0
:1057F40000F096F9E0E5200000222130FF30E25469
:105804003E0000F08DF9DDE5200000226130FF301C
:10581400E2543E0000F084F9DAE520000022A130D1
:10582400FF30E2543E0000F07BF9D7E5200000226F
:10583400E130FF30E2543E0000F072F9D4E500227A
:10584400E2541C3BE01800F06BF93E00D1E5002265
:10585400E2541C3BE01800F063F93E00CEE5002260
:10586400E2541C3BE01800F05BF93E00CBE500225B
:10587400E2541C3BE01800F053F93E00C8E5002256
:10588400E2541C3BE01800F04BF93E00C5E5002251
:10589400E2541C3BE01800F043F997E62100054868
:1058A400694000F0C1FAC046BA030000FB030000DF
:1058B400FA030000F04D0010F0B5D6464F464646B8
:1058C400C0B50200838A008B8A46041C984200D922
:1058D4001C1CD57880262800471EB841A4B2F600C7
:1058E400264340033043012675401B1BD570557871
:1058F4009BB29382002D37D15146D6688D01611E2B
:10590400761988461569002C29D006293AD92B0026
:1059140033439B0736D16B1CF31A022B32D9231F56
:105924009B0801339C4600270023E9580137F150B6
:105934000433BC45F9D8634641469B00ED18F6187C
:10594400CF1A9C4209D02B783370002F05D06B7886
:105954007370012F01D0AB78B3701569938A2D1938
:105964001561802212021043002B02D18023DB0137
:1059740018435346002B00D00004E0BCBA46B1469D
:10598400A846F0BD0023EF5CF75401339C42FAD1E2
:105994001569938AE3E7C0468368F0B51B68050080
:1059A400002900D01B0C9B05980D6B78002B08D1A7
:1059B400EB8AC318EB822B8B834201D90023AB8281
:1059C400F0BDEB688901461EB4462A695C180028BC
:1059D40027D0062E2BD901315B18D31A022B26D9D6
:1059E400130023439B0722D100230021061FB6087E
:1059F4000136E7580131D75004338E42F9D8634653
:105A0400B600A41992199F1BB04209D023781370D1
:105A1400002F05D063785370012F01D0A3789370C1
:105A24002A69EB8A1218C318EB822A61C3E70023A0
:105A3400E15CD15401339842FAD12A69F1E7C046B6
:105A440010B50400836800211B68FFF7A5FF636895
:105A54001B685B0002D5238B834200D010BD01215B
:105A64002000FFF799FFF9E7084A0300126C0020B1
:105A7400920703D49A78D209012A00D07047D87EBD
:105A8400023843425841C0B2F8E7C0460000115002
:105A940010B5FFF7E9FF00280CD00749074B8C46E7
:105AA400074A9B6A126863449B1A0020C6229A42E2
:105AB4004041C0B210BDC046E0FCFFFF00400540BD
:105AC400181B002000238376436103617047C0469E
