:020000041000EA
:1000000000B5324B212058609868022188439860DF
:10001000D860186158612E4B002199600221596106
:100020000121F02299502B49196001219960352056
:1000300000F044F80222904214D00621196600F024
:1000400034F8196E01211966002018661A6600F04E
:100050002CF8196E196E196E052000F02FF8012189
:100060000842F9D1002199601B49196000215960AB
:100070001A491B48016001219960EB211966A021F2
:10008000196600F012F800219960164914480160C1
:100090000121996001BC002800D000471248134993
:1000A000086003C880F30888084703B5996A0420EC
:1000B0000142FBD001200142F8D103BD02B5186610
:1000C0001866FFF7F2FF186E186E02BD00000240BE
:1000D000000000180000070000035F00212200005C
:1000E000F4000018222000A00001001008ED00E03C
:1000F00000000000000000000000000074B24E7A12
:1001000000200420F7010010CB010010CD010010E9
:10011000C9010010C9010010C9010010C901001077
:10012000C9010010C9010010C9010010CF01001061
:10013000C9010010C9010010D1010010D301001045
:10014000C1010010C1010010C1010010C101001067
:10015000C1010010C1010010C1010010C101001057
:10016000C1010010C1010010C1010010C101001047
:10017000C1010010C1010010C1010010C101001037
:10018000C1010010C1010010C1010010C101001027
:10019000C1010010C1010010C1010010C101001017
:1001A000C1010010C1010010C1010010C101001007
:1001B000C1010010C1010010C1010010C1010010F7
:1001C000EFF30580103800BE00BE00BE00BE00BECA
:1001D00000BE00BEF2EB8871007F0010207F00108F
:1001E0003802001090A31AE71E481F49086006C88D
:1001F00081F3088810471D480068002801D019487D
:10020000F3E70DA40ECC002902D000F012F8F9E7B4
:100210001749184A002000E001C19142FCD116495B
:100220008847164988471649884700BEFDE701C937
:1002300001C29A42FBD37047207F0010C00000200B
:1002400070100020D08E0010000004200000042058
:10025000D08E0010001004200010042000000000C8
:10026000704700000000000008ED00E0000000D032
:100270007010002010200020454300105104001091
:100280003D430010F8B5C0460448054B10B5834205
:1002900003D0044B002B00D0984710BD70100020F5
:1002A000701000200000000006480749091A8B1052
:1002B000C90FC91810B5491003D0044B002B00D04A
:1002C000984710BD70100020701000200000000042
:1002D00010B5074C2378002B09D1FFF7D5FF054B4C
:1002E000002B02D0044800E000BF0123237010BDA2
:1002F000F81300200000000084780010054B10B5B2
:10030000002B03D00449054800E000BFFFF7CCFFF5
:1003100010BDC04600000000FC13002084780010CF
:10032000E12110B50E4C4902200001F0BFF9022175
:10033000002000F00BFA0221012000F007FA200053
:1003400000230122082101F03FFAC022236B120290
:100350001340044A01212000136001F071FA10BD1E
:100360000040034030500340F8B5304C304D10226F
:10037000A3691A4220D11100A36919401A42FAD187
:100380002368DBB20D2BF3D00A2B07D02A687E2A14
:10039000EDDC511C296027498B54E8E7244F254E9A
:1003A0003B68F154002B08DC002380220021300040
:1003B0003B6002F09BFCDAE7F8BD31001E4804F018
:1003C000DFF930001D4907F0A7F8002813D01C48BA
:1003D00004F04EF900F0D6F80F2000F039F9C820EB
:1003E00000F0A2F9174801F067F80F2000F060F95B
:1003F00000F0F4F8D8E73000134907F08DF8002832
:10040000D2D0124804F034F900F0D2F8642000F0A1
:100410008BF9642001F050F8642000F085F90F207A
:1004200000F046F900F0DAF8BEE7C04600400340AD
:10043000E41F0020601F00208878001094780010CE
:100440009C780010B80B0000AC780010B478001055
:1004500010B504F0BDF80E4801F02EF80D4804F078
:1004600007F9022200210C4800F018F80F2000F0D4
:10047000CBF8102000F04AF9FFF752FF0F2000F0F0
:1004800017F9FFF771FF0A2001F016F8F9E7C046E7
:10049000DC050000C478001000002050F0B5C6460E
:1004A00000B5314B04001860304B86B019600E0067
:1004B0002F49150006F054FD2E4B0700E118090DD9
:1004C00006312800C9B200F041F9012331002A00A9
:1004D0000093200006F0C6FD80235B020293FB1C04
:1004E000FA011B031343244AAD0213400393F8237C
:1004F000DB011D4080239B052B4305931F4B0520EB
:10050000049301F0B9FA02F073FB1D4902F055FBA8
:10051000EC21890502F04EFB804602F091FB85B28A
:100520000023002D0ED0280002F062FB011C404683
:1005300002F03DFB8721C90502F053FB02F080FB6E
:10054000C3B21B022D043A001D43310002AB200050
:10055000029506F0E1FD0123B340226813432360B6
:1005600006B080BCB846F0BDFC1F00200020002073
:10057000D87800100000E0AFFFFFFF9F00000630BA
:100580000024F44A084B01221968084B186803003C
:1005900010339A404B681A42FCD1FF23043080008C
:1005A0001B0643507047C046FC1F0020002000205F
:1005B000084B01221968084B1868030010339A4051
:1005C0004B681A42FCD1FF23043080001B044350C7
:1005D0007047C046FC1F002000200020084B10B5CB
:1005E0001968084B01221C68230010339A40100040
:1005F0004B6818401A42FAD10434A400605010BD70
:10060000FC1F00200020002010B50421040000F091
:100610009DF81F2C13D82407640F0B4AA30094469F
:1006200000221B199B0063441A609A60DA60074A33
:100630001A61FA22D2005A6001221A6010BD6407C2
:10064000A40F0834E9E7C04600000540204E000032
:100650001F2814D80207520F93009B180F4A9B00C3
:1006600094466344C00715D50D480E4A19684140A9
:100670000A40802149018C4663441A607047420752
:10068000920F083293009B18044A9B0094466344DF
:10069000C007E9D40448054AE8E7C0460C00054015
:1006A0000000DC050000FFFFDC050000FFFF00008C
:1006B0001F2815D80207520F93009B18104A9B0061
:1006C00094466344C00716D5FA200E4A40041968C0
:1006D00041400A40802149018C4663441A607047BA
:1006E0004207920F083293009B18054A9B009446DC
:1006F0006344C007E8D4FA20034A4000E7E7C04655
:100700000C0005400000FFFFFFFF000010B5054C86
:10071000206000F035F8012322689340D0221206B1
:10072000536210BDB41A002070B501242200064D9A
:10073000D0262B6836069A40726100F0BDFE2B6809
:100740009C40B46170BDC046B41A0020094A8300C1
:100750009A1810B514684022544080322240064C4A
:10076000C000A44663441A60044B9C466044416048
:1007700010BDC04604C0014004D00140004001400B
:100780000123D0228340120693629361094A8300B9
:100790009A1811684022514080320A400649C00030
:1007A0008C4663441A60054B9C46052360444360B5
:1007B0007047C04604C0014004D0014000400140E1
:1007C0008023DB051868000F7047C0460FB400B5E2
:1007D000084883B003F04CFF049B002B07D005A909
:1007E0001800019103F090FD034803F041FF012040
:1007F00003F0A2FDE8780010F8780010EFF3108005
:1008000072B6034A1368002BFCD0BFF35F8F7047AA
:100810002C0100D0BFF35F8F0022024B1A6080F3DF
:10082000108870472C0100D070B5EFF3108C72B6B1
:100830000D4D2B68002BFCD0BFF35F8F0724CB0836
:10084000C618C05C01230C40A3401C0004400342B6
:1008500007D118433070BFF35F8F2C608CF3108882
:1008600070BD1000FFF7B2FF2C0100D0F8B547466D
:10087000CE46884680B5EFF3108C72B6214D2C68B9
:10088000002CFCD0BFF35F8F9A422CD8D4080727E6
:10089000055D061901241740BC402C421FD00721DA
:1008A0000127894609E0D408055D06194C46390040
:1008B0001440A1400C00294211D001329342F2D2DF
:1008C00001204042BFF35F8F00220E4B1A608CF371
:1008D000108800280FDBC0BCB946B046F8BD2543E0
:1008E00010003570EEE7BFF35F8F00232B608CF3B1
:1008F0001088012040424346002BECD00898FFF7B7
:1009000065FFC0462C0100D0044A1078431CDBB2BE
:10091000172B00D9102313707047C046A80F002072
:1009200010B5064B064C82B00100009318221F231D
:100930002000FFF79BFF02B010BDC046FC780010FE
:10094000C01A00200021044B044ABFF35F8F02C38A
:100950009342FAD17047C046000100D0800100D018
:10096000054B064A1360064A136053609360D360D8
:1009700013615361936170478080808000E400E0E0
:1009800004E400E01F2318401E3B8340002905D0EB
:10099000C021044A49005350136070478022014926
:1009A0008B50FAE700E100E001228240034B1B6814
:1009B00013405A1E9341D8B27047C04600E100E090
:1009C00001238340014A13607047C04600E200E003
:1009D000064B10309B688000C358054A00209B1AC4
:1009E0002F229A424041C0B27047C04600ED00E05D
:1009F000AC0F002070B50D00EFF3108672B60F4AF1
:100A00001368002BFCD0BFF35F8F0D4B10309B6839
:100A100084001B590B4A934203D09D4201D001F040
:100A200033F9074B9B681D51BFF35F8FBFF35F8F97
:100A30000022024B1A6086F3108870BD240100D09A
:100A400000ED00E0C1010010F0B557464E46DE460D
:100A50004546E0B585B0060000911700EFF3108B16
:100A600072B66A4A1368002BFCD0BFF35F8F002573
:100A7000674B5D579A46002D00DA8BE06B00654CA2
:100A800001935B199B009846A146C1444B465246D0
:100A90009B7910361370604BB6009B6899590B1BFD
:100AA0002F2B33D95D4B994200D0ACE0019B4246DD
:100AB0009C465B4B6544AD0063535A4B0232A2180F
:100AC000043B9B1A1B05584A5B0D651913436B8049
:100AD000564B0121AB80FF23AB71009BEF71AB60E4
:100AE0004B460B4319004C4B9B689951BFF35F8FEA
:100AF000BFF35F8F0022454B1A608BF3108805B05F
:100B0000F0BCBB46B246A946A046F0BD01200A0093
:100B10008243D3798C46BB4231D8454613004449C1
:100B20001B1B5B415943090D3D4B63533D4B023544
:100B30006519043B5B1B1B053B4D5B0D2B43AA4614
:100B40004D466B800425AC465546E044131F444493
:100B50001B1B1B055B0D1D434B46997100999D8026
:100B600099604946DF71334B01431360BBE758007E
:100B7000C01880002018C179B94211D9020006239B
:100B8000D356002BF3DA0293131D9A462A4B614683
:100B9000039319E001F078F8002553465D576DE79F
:100BA000908802934005131D9A46031561469C46A2
:100BB0004046D444634604302018181AE023000548
:100BC000400D1B021843039004235B429C46E14402
:100BD00050464B461B1A1B055B0D9C46124B9571EC
:100BE00098466346404603439380019B5A199200FE
:100BF000039BA418A380029B0E4AA371009B226052
:100C0000E771A3606FE701F03FF84FE7240100D0E0
:100C100008200020AC0F002000ED00E0C101001012
:100C200000A1FFFFDC0F002000E0FFFF01BDFFFF80
:100C3000AAAA00000148804701BD000070B5012448
:100C40000443EFF30581EFF3108C72B6214A136869
:100C5000002BFCD0BFF35F8F1F4B05001F4AED1A1E
:100C60006D416A43120D1E4D8900AE6852B276582E
:100C7000A6421CD00621595691421CD01221595629
:100C8000914222D01E215956914220D02A215956F4
:100C90000324914210D0134B19781A708171BFF35D
:100CA0005F8F00220B4B1A608CF3108870BDAB680D
:100CB0000D4C5C50EFE700246100091989005B18B6
:100CC000FF21997109499980E5E70124F4E702249D
:100CD000F2E7C046240100D0AC0F0020AAAA000011
:100CE00000ED00E008200020C101001001BDFFFF61
:100CF00010B5084B084C82B0010000930022052378
:100D00002000FFF7B3FD002801DB1F23181A02B0F3
:100D100010BDC046187900100C200020024B9C46E4
:100D2000614489000160704740000034F8B5134DFC
:100D3000134E2C00FF27B5421ED22368002B0FD084
:100D4000FFF7E2FD01002800FFF7E8FFA780BFF3EF
:100D50005F8F0834B4420FD223682500002BEFD1F7
:100D6000FFF7D2FD01002800FFF7D8FF2771BFF37E
:100D70005F8F0834B442EFD3F8BDC046681000203E
:100D80007010002010B50400FFF7BEFD0100200028
:100D9000FFF7C4FFFF232371BFF35F8F10BDC04671
:100DA00010B504000120FFF7BBFD034BC3189B00E7
:100DB0002360BFF35F8F10BD40000034034B9C469F
:100DC000614489000160BFF35F8F704740000034C9
:100DD0000A4B1968EFF3108072B60A68002AFCD03B
:100DE000BFF35F8F1B68BFF35F8F00221A6080F331
:100DF000108840BF002000217047C046541F0020CB
:100E0000F0B5DE4657464E464546E0B585B0EFF3B1
:100E1000058203231340B64A9900575801229A408D
:100E200088469346B34B1A60B34B02935B46B34874
:100E300043630823FE5E002E35DABB881BB2002B0D
:100E400000DBA8E0BB79002B00D0E9E00823F85EC6
:100E500000281EDB43007A691B18DB00D3189D684D
:100E6000DC686B1C00D108E1A44801004144826A9F
:100E70000B69AE1A9B1A9E4213D35A46036A1A4252
:100E80000FD09E4800F0BCFB8C4202DCCED18542E4
:100E9000CCD940BF05B0F0BCBB46B246A946A0467F
:100EA000F0BD0D61EDE77A69730091469B19DB0097
:100EB00099444B469C68DD6800F0A2FB8D42BCDC87
:100EC00000D1FEE0002D00DAE3E04B46029A1B69F8
:100ED000934200D1D5E04A465288494694460822BA
:100EE000B85E62460004496910439847009001913A
:100EF0000099019A0B001000134300D1C9E01300C0
:100F00000A00002800DBE0E020002900801A994157
:100F10004B469860D96000229A5E002A00DA8CE77E
:100F200053009C187D69E4002C190093A368E468C1
:100F30009A468C4200DD80E702D1834200D97CE7EB
:100F400008239C46BC443A8103976746009BB446FD
:100F50003E000EE08C4200D1C5E01E000023F25E90
:100F6000002A0BDB53009C18E4002C19A768E468E6
:100F7000BA469B18DB00EB188C42EBDD330066466B
:100F80009C464B461A806346039F1E80BB881BB25B
:100F9000002B00DA56E73A69EFF3108172B6136856
:100FA000002BFCD0BFF35F8F0123BE885B42BB8068
:100FB00036B23B69BFF35F8F00221A6081F310885D
:100FC000002E00DA3EE73B0008333A0099467D697F
:100FD00073009B19DB00EB189968DC688C460820CD
:100FE000115E4846002910DB009306E0A34240D082
:100FF0000023F95E3800002906DB4F007F18FF0050
:10100000EF19FB68A342F1DD009B068000201E5E05
:101010001980002EDCDA1700BB79002B00D115E710
:101020000023BB713D000823F95E08354B1C00D13D
:101030002FE77C690800A44603E035004B1C00D173
:1010400006E74B005B180A006146DB00CE18C95E5C
:1010500073881BB2002BF0DA01235B42DC17B3600C
:10106000F4608242EAD029803B89100033803A81C3
:10107000E4E7BB686345BBD9C6E7631C00D0F3E671
:10108000FFE64B465B699A461B6950469847002825
:1010900023D14B461B883A693B81EFF3108372B62C
:1010A00011680029FCD0BFF35F8F49467A880A8017
:1010B0003A697E80BFF35F8F0021116083F310884F
:1010C000BBE6844200D8FDE6B7E60C4800F098FA8B
:1010D000009B019CC01861411AE753461A685B687F
:1010E0000092019304E7824500D836E746E7C04600
:1010F000381F00203C700540010E001000400540E4
:1011000070B52E4C2569002D04D00A212C48FFF71C
:1011100005FE70BD2B4E0321300000F067FAE6603B
:10112000FFF7F2FB284B03229C46D02322701B06BC
:101130001B6801216370254B6044A3600F2380006E
:1011400020610220638063694942A18019800231D5
:10115000198647311D83585218315A5275325C39FD
:10116000995218320131995218320131995218327C
:1011700001319952083518329D5202311832995274
:101180001832013199521832013199521832013115
:1011900099521832013199521832013199520C4B3F
:1011A0000C49DC6001303562FFF724FC012103208B
:1011B000FFF7E8FB084B1D60A7E7C046F40F0020CF
:1011C000541F00200040054040000034FFFF100085
:1011D000381F0020010E001038600540004870479D
:1011E000F40F0020F8B51F0008AB1B7804001600B0
:1011F000002B08D100F00CFA32003B00121A8B4190
:10120000002B00DA53E02269EFF3108072B6136806
:10121000002BFCD0BFF35F8F0223E15E63694A00BD
:101220005218D2009B18002937DB1A886280226985
:10123000BFF35F8F0025156080F31088069A9E60CB
:10124000DF601A61079A5A615A8801325204520CBF
:10125000101C002A1FD082B258800804104326694F
:10126000EFF3108772B63268002AFCD0BFF35F8FAD
:10127000A2881A80A1802369BFF35F8F00221A60C1
:1012800087F310880B4923788C4601329A40E36833
:1012900063441A60F8BD0120DDE72369BFF35F8F67
:1012A00000221A6080F3108801204042F2E70020FB
:1012B000F0E7C0463C20000070B501000469EFF380
:1012C000108C72B620680028FCD0BFF35F8F02201C
:1012D0000D5E4C6968004019C0002418002D37DBF2
:1012E000208848800869BFF35F8F002606608CF372
:1012F0001088E36063880498013320615B040598DB
:101300005B0CA26060611A1C002B1FD093B22804F2
:10131000628018430A69EFF3108C72B61368002BD1
:10132000FCD0BFF35F8F8B8823808D800B69BFF368
:101330005F8F00221A608CF310880B7801329A407C
:10134000CB6808498C4663441A6070BD0122DDE712
:101350000B69BFF35F8F00221A608CF310880120A5
:101360004042F2E73C20000010B543890A14934242
:101370001ADD53009B184269DB00D3180469EFF3B0
:10138000108C72B62268002AFCD0BFF35F8F5A8897
:10139000090494B2090C8A4208D00369BFF35F8F35
:1013A00000221A608CF31088002010BD80221202E7
:1013B00014435C80012302698371BFF35F8F0021B6
:1013C00011608CF31088044902788C469340C268FF
:1013D000012062441360E8E73C2000004078704739
:1013E000F0B504000D0006267642F717C6463619FA
:1013F0006F4100B582B08F4214D811D000F008F9C7
:1014000032003B00121A8B41002B17DC002B47D017
:101410002000290000F03AF902B080BCB846F0BDC7
:101420008642EBD90022002316001F0000F0F0F8DE
:1014300032003B00121A8B41002BE7DD00F0E8F888
:1014400032003B00121A8B41002B0ADB0023019370
:10145000154B3200009315483B00FFF72DFF002885
:10146000D6DB00239C46B046114A124E736A9F4257
:1014700004D8B16A4145CBD29F42C9D11168EFF37C
:10148000108072B60B68002BFCD0BFF35F8F13681F
:10149000BFF35F8F6146196080F3108820BFE5E7D6
:1014A000002AB5D0CAE7C046D10D0010F40F0020C5
:1014B000541F00200040054070B5060000F0A8F859
:1014C000FA2204000D00002330000021920001F0F8
:1014D00051FB8023001969411B06994202D3012068
:1014E00002494042FFF77CFF70BDC046FFFFFF7F0F
:1014F000F0B5CE46474680B504000D0083B0EFF34B
:101500000587002F0DD0364A0020536A8B4203D343
:10151000926A0130A24250D303B0C0BCB946B04673
:10152000F0BD304B9846DB689946434648461E78E6
:1015300000F066F80B00494602000436B600715808
:1015400020008E1A2900801A99418F4211DC0ED09A
:1015500020BF234A0020536AAB42DDD3926A013098
:10156000A242D9D2EB1A5A1E9341D8B2D4E786428E
:10157000EED900F04DF822002B00121A8B41002BFF
:1015800020DB00230193184B2200009340462B00E0
:10159000FFF792FE011E15DD114B2E005A6A95428F
:1015A0001CD89B6AA34217D34046FFF7DDFE0C4AC6
:1015B0000020536A9E42AFD8D0E75B1A5A1E93416F
:1015C000D8B2A9E7064A0020536AAB42A4D3926A74
:1015D0000120A242A0D2C5E79542E5D120BFE3E7B2
:1015E00000400540F40F0020D10D001010B5024A54
:1015F0000248FFF719F910BD34790010C41A002011
:101600000300416A0A00986A596A8A42FAD170470F
:10161000034B596A0A00986A596A9142FAD1704795
:101620000040054070B504000D00174A536A1900C8
:10163000966A536A8B42FAD13000190024184D4142
:10164000AB4216D813D0104B2A005B6A9D4203D9D7
:101650000D494B6A9342FCD3934207D10A4A02E0F8
:10166000516A994202D1916AA142F9D370BDA64252
:10167000E9D9054B5B6A1C005A1CEFD001220124FA
:101680006442E5175242E3E700400540064A536AC8
:101690009942FCD807D1044B02E05A6A914202D128
:1016A0009A6A8242F9D3704700400540F8B50400B9
:1016B00006200D0000F0E0F9002842D0364B3749F3
:1016C000E21853425A418023DB039C469205344B77
:1016D00062441A60334B1A6010000B689843FBD1C8
:1016E0002D4B314AE31859424B4180215B004900A0
:1016F0000620995200F0C0F92900C00000F01EFC3D
:101700000130C3091ED1402701226262A362266B09
:10171000F30722D4E36A254B0620E51800232B604B
:10172000266300F0A9F93900800000F007FC70235F
:10173000E26A5A400E3313402B601D4B2363032390
:10174000A364F8BD1B4A93421ED900231A4A1B4FBB
:101750006262A362266BF307DCD5194B144AE318C7
:101760001A60656AA36A0620AD01ED1800F084F9DD
:10177000144900F0E3FBAD020100280000F0DEFB9D
:101780000021FFF74FFFC5E74006800E9F011A00BA
:101790003F180300B9E7C0460080FCBF08C0004006
:1017A00000E0004000F00040E01F00202C1000008E
:1017B00001030000FEFF0000FFFF0000C0FF3F002C
:1017C000303000004E0E00000539013AF8B5D20065
:1017D0004C0105001443002B06D0013B5A425341F3
:1017E0009B00234302241C432E6BF30708D46E2373
:1017F000EA6A624013400E4AAA1813602E63F8BDCD
:101800000C4B0D4AEB181A606F6AAB6A0620BF01D9
:10181000FF1800F031F9094900F090FBBF02010008
:10182000380000F08BFB0021FFF7FCFEDFE7C0462D
:101830002C10000030300000010300004E0E0000AC
:10184000F8B5066B04000D01F30708D41021E36A14
:101850006B4019400D4BE31819602663F8BD0C4B23
:101860000C4AC3181A60476A836ABF010620FF1832
:1018700000F002F9084900F061FBBF0201003800E6
:1018800000F05CFB0021FFF7CDFEDFE72C1000002D
:1018900030300000010300004E0E0000F8B5DE46B7
:1018A0004E4657464546E0B58B4605000A99180056
:1018B000160000F043FB0A9B6C001F02324B6419B8
:1018C0009C46A4006444636881469F4200D96760D7
:1018D0002B1FDBB29846012B30D9C02380229B01FD
:1018E000E31812011A60294BAD0059599A46002994
:1018F0001BD17301E026226853401E4080234246DC
:101900005B01E3181E60012A30D9802380229B01ED
:10191000E31812011A6053464A4667605A51F0BCF8
:10192000BB46B246A946A046F8BD586900F006FB82
:10193000013043001B18033BFDD2DAE75B46012B65
:10194000CBD1C02303229B01E3181A60023AA3689B
:101950001A42FCD07301E0262268AD0053401E40BD
:1019600080230A4A5B019246E3181E605A462168AA
:10197000514003220A401A6001225B469A40A36844
:101980001A42FCD0C1E7C04600800040C81A0020BF
:10199000F0B546464F46D646C0B51F00344B44000E
:1019A0009C462418A4006444636888461600FF2BF4
:1019B00002D880235B006360031FDBB29A46012BD1
:1019C00030D9C02380229B01E31812011A60294BF1
:1019D00085005959994600291BD17301E0262268D8
:1019E00053401E40802352465B01E3181E60012ACB
:1019F00030D9802380229B01E31812011A608023D2
:101A00005B0063604B465F51E0BCBA46B146A846F6
:101A1000F0BD586900F092FA013043001B18033BF7
:101A2000FDD2DAE74346012BCBD1C02303229B0131
:101A3000E3181A60023AA3681A42FCD07301E02648
:101A40002268850053401E4080230A4A5B0191466C
:101A5000E3181E6042462168514003220A401A6082
:101A6000012342469340A2681342FCD0C1E7C0461E
:101A700000800040C81A0020014B8000C058704709
:101A8000C81A0020F8B5040020481D0017000E00F9
:101A900000F054FA0100380000F050FA069B2904C7
:101AA0001B0319432368002B1EDB194B194DE21849
:101AB00053425A4180235B019C461203164B6244F9
:101AC0001A60164B1A6017002B689F43FBD1144B0A
:101AD0002660E2182123A06013602368002BFCDA43
:101AE0000823E1601360F8BD3F2322681340B3422E
:101AF000DBD1A3681B051B0D8342D6D1EE22E36820
:101B0000D20213408B42D0D1EDE7C046001BB70094
:101B10000040FDBF08C0004000E0004000F0004071
:101B20000430000010B580241C4BE4051C60002824
:101B30001AD001231A4C18431A4BDC611A4C44404A
:101B40001C62596298628021144BC90519601748BC
:101B500017490860E021C9041960002A07D18022D2
:101B6000144B12061A6010BD0E4BD861EBE75301FF
:101B70009B1A9B009A18802312015B049A4209D297
:101B800013000D490B60074B5A608022094BD205A8
:101B90001A60E8E7094B1A00F3E7C04600B00540B9
:101BA000D3C007B0008005402D3FF84FFCFF010077
:101BB0000820014000A00540281F0020FFFFFF0073
:101BC0008023024A9B000B43D3627047008005408C
:101BD000142310B50100188804331B88984710BDE2
:101BE000162310B50100188802331B88984710BDD2
:101BF000F8B54746CE4680B50F1E19D01423994636
:101C0000043304000025012698464B4618884346B5
:101C100021681B88984701C4431E98410135404202
:101C20000640AF42F1D13000C0BCB946B046F8BD65
:101C30000126F8E7142370B50400188804331B88C4
:101C40000D000549984703000020002C01DB0130FE
:101C5000A04029009847C04655420000AA23064AE2
:101C60001B0113608D235B00D3600449044B196092
:101C70005368002BFCDA70470040024000B0FA00C5
:101C8000006002407047C04610B50148FEF79EFD57
:101C90005879001070B5074D074EB54209D200249F
:101CA000013E761BB60808CD984723000134B342A5
:101CB000F9D170BD407800107C780010054B064AC1
:101CC00006491A60064A074B1A6010000B689843D1
:101CD000FBD1704700E00040BFCDFBFE08C00040D4
:101CE000FE7F3C0000F00040044BDB6C002B03D176
:101CF0008022034BD2021A607047C0460000115088
:101D00004C201150044A054B1A60054A1368DB0148
:101D10008033FBD17047C046FFFFFF0100F0004059
:101D200008C000404022034B9A675A671A67DA6678
:101D30007047C04600F0014010B5FEF703FE10BD2D
:101D4000F8B52B492B4C2C4D641AA6103200302EBE
:101D500000D930222800920000F0CEFFBC2C3ED8E3
:101D6000731C18000127254A302B3BD92F212C1931
:101D70006407E40F891B052917D9302B15D8002CCF
:101D800033D0B300EA503F1B33199B007908EB189E
:101D9000C900C9181A605A6008338B42FAD101236E
:101DA0003B421CD09F433E18731CB1006A50302B3D
:101DB00015D09B00EA50B31C2E2E10D09B00EA5089
:101DC000F31C2D2E0BD09B00EA50331D2C2E06D079
:101DD0009B00EA50731D2B2E01D09B00EA50084B4C
:101DE0009D60F8BD2F37BF1BC0E73000CBE7C04672
:101DF00000010010C001001000000020C10100100F
:101E000000ED00E0002310B5294C82B0A367FFF776
:101E100025FF0122274B1A60636C012BFCD10322A2
:101E2000254B1A60224A936B012BFCD1013300939E
:101E30000121224A22480433FFF724FE0523012111
:101E40000093204A2048FFF71DFE002202210420B3
:101E50001E4BFFF79DFD0022012105201C4BFFF7C3
:101E600097FD0022002107201A4BFFF791FD002269
:101E700000210820174BFFF78BFD8023DB00009328
:101E8000002200210920134BFFF708FD0022104B10
:101E900000210620FFF77CFD0420FFF7EDFD0E4931
:101EA00000F04CF801000020FFF78AFE02B010BDE0
:101EB000008000403CB0004030B00040002F685926
:101EC00000800240008C864700C00240001BB70023
:101ED00040597307006CDC0240420F0001480421A6
:101EE000014B184710100020F11B0010124A936F8D
:101EF0009B0815D29066D166002905D0FFE7FFE761
:101F0000FFE7516F106F704704B580210906C217B3
:101F10005140002800D0C84305F052FC002104BD08
:101F2000F0B5146E556E576F166FFFF7E3FF14662A
:101F3000556657671667F0BD000000D0114A936FD1
:101F40009B0813D210665166002905D0FFE7FFE712
:101F5000FFE7516F106F704704B5002801D00020D3
:101F6000C04305F02DFC002104BDC046F0B5146E41
:101F7000556E576F166FFFF7E5FF14665566576786
:101F80001667F0BD000000D094464A4A926F92084E
:101F9000624601D228E0C046F0B5464E346E756EFA
:101FA000776F366F00F020F89446424A1466556603
:101FB000576716676246F0BD94463E4A926F920894
:101FC000624601D254E0C046F0B53A4E346E756EAA
:101FD000776F366F00F04CF89446364A14665566B3
:101FE000576716676246F0BD002B24DB11D000292D
:101FF0003EDA00B5C943404200D1013100F038F863
:10200000C943404200D10131DB43524200D1013388
:1020100000BD002AEBD1002801D1002905D0002005
:10202000C90FC90701D1C043410800B505F0B8FB8D
:102030000022002300BD00B500290ADBDB43524229
:1020400000D1013300F014F8C943404200D10131FE
:1020500000BDC943404200D10131DB43524200D1AF
:10206000013300F005F8DB43524200D1013300BDDB
:10207000002923D1002B18D1002A0CD0BC460D4FCB
:1020800038667A6600210023FFE7FFE7FFE77A6FF3
:10209000386F67467047002801D00748010000B537
:1020A00005F07EFB0022002300BD02000B00002093
:1020B00000217047000000D0FFFFFFFF002B00D081
:1020C000BFE0130C28D1002AE7D080B4114F396645
:1020D0007A66FFE7FFE730B4040C7B6F396F1B04AF
:1020E00023433B667A66FFE7FFE7FFE7C04684B21B
:1020F0007B6F3D6F1B0423433B667A66FFE7FFE778
:10210000C04600232C042D0C7A6F386F00196941EA
:10211000B0BC7047000000D0F0B594460025140E06
:1021200001D112020835140F01D112010435940FA8
:1021300001D192000235D40F01D152000135D40BE8
:102140000134254F7C66254C3C660E0C93B2FFE7AC
:10215000FFE7FFE73C6F6643360C7703BE467343E9
:10216000DF0B5B04C01AB941130C7343DB18C91AA7
:10217000CE086643360CB64493B273431F0F1B015F
:10218000C01AB941130C73431F0B1B05C01AB94188
:10219000860D8F023E436643360C092D24DB520A1E
:1021A0007243801A7703460A6643360C16235B1B7C
:1021B000DE40DF40BF1964466643821B704604352B
:1021C00006330100D940A840C01900D30131A24212
:1021D00006D20023F0BD0000000000D0FFFFFFFF8B
:1021E000121B0130F3D3F1E709277F1BFE40644641
:1021F000A2B27243801A00D20139220C7243130C2E
:102200001204821A99410B007046043513370100FD
:10221000F940A840801900D30131002B02D1A2421D
:102220000AD2F0BD013000D30131121BFAD2013BBA
:10223000F8D1A24200D2F0BD013000D30131121B0F
:10224000F7E7F0B51C0C00D080E00CB400251C0AA8
:1022500004D11B02160E3343120208351C0B04D1A5
:102260001B01160F3343120104359C0B04D19B0054
:10227000960F334392000235DC0B02D192185B417A
:1022800001351C00971864410134464F7C66464C6A
:102290003C660E0CFFE7FFE7FFE7C0463C6F664376
:1022A000360C7703BE4697B27743C01B00D2013984
:1022B000C01B00D201399FB27743C91BC91B170C41
:1022C00077437E04FF0B801BB941CE086643360C72
:1022D0000C2D33DBB644120B1F053A431B0B97B290
:1022E0007743C01B00D201399FB27743C91B170C3B
:1022F00077433E043F0C801BB941860D8F023E435D
:10230000664329277F1BFE400C3D7746AF40BF192F
:1023100030BCA2B2ABB272437343801A9941220C13
:102320007243130C1204801A994102000B0001370A
:10233000001BA941F9D2781E0021F0BD0C277F1B9C
:10234000FE4077467F0BAF40FF19E0E700245D1C9D
:1023500007D0144F7D663966FFE7FFE7FFE7FFE729
:102360003C6F95B29EB265436643401BB141150C6C
:102370001E0C6543664336042F0C3E432D04401B60
:10238000B141994204D202000B0020000021F0BDAF
:1023900001D19042F7D3801A994101349942F2D386
:1023A000F6E70000000000D0FFFFFFFF484041407B
:1023B000484018B41B4B5B68FC46019308BD04DF22
:1023C0004726001018B4174B1B68FC46019308BD44
:1023D00000DF512600109446134A926F920809D2EA
:1023E000624618B40F4BDB68FC46019308BD0CDF56
:1023F000092900100C4AF0B5146E556E576F166F10
:102400006246FFF7EEFF084A14665566576716677F
:10241000F0BD18B4034B9B68FC46019308BD08DF70
:10242000AD270010F8110020000000D0FFB550408B
:102430004240504059404B40594000E0FFB5154FD5
:102440004C00640D03D0BC4204D10C0314D800200E
:10245000090D09055C00640D03D0BC4204D11C03C6
:102460000AD800221B0D1B0501264B4009D44B4006
:1024700003D58B4200D18242FFBD9942FCD19042EC
:10248000FFBD0B43DB1803431343F5D0C943491881
:10249000FFBD0000FF07000000B5FFF7CFFF804140
:1024A00000BDC04600B5FFF7C1FF01D9002000BD47
:1024B000012000BD00B5FFF7B9FF804100BD01203C
:1024C00040054A00121804D85A00121801D80020FA
:1024D00070470120704700000021002805D1704797
:1024E000C1174840401AFAD0C90713B5064B1B68FC
:1024F00098470CBC441CA2401005120B0349091B51
:1025000009051943114310BD501F00201F0400008E
:1025100010B54C00620D8023D218DB00D21A5B0587
:102520007E2A10DD9E3A13DACC17090349081943B5
:102530005242D140640001341532202A05DAD040DD
:102540000843604310BD002010BD0846604310BD25
:10255000C80FC018013810BD18B4044B5B6AFC46A4
:10256000019308BD24DFB92A00100000F8110020F3
:10257000132370B51D78012D19D014DD1F48FFF706
:102580002FFB06001E48FFF72BFB1E4C802231005C
:10259000200000F0B1FB022D2DD01B48FFF718FBE7
:1025A0001A4B186070BD1A4B164CA364F5E7184B14
:1025B000144C23606360A360E36023616361A361E3
:1025C000E36123626362A362E36223636363A363E1
:1025D000E36323646364A364E36423656365A365C1
:1025E000E36523666366A366E36623676367A367A1
:1025F000E367A364D1E7064BA364CEE7534400002E
:1026000053460000F81100204C330000501F0020FA
:102610001526001007B5604601880A0A0230DF2A35
:10262000FAD1C9B2820804D302884088000410435A
:1026300000E00068014A5050039007BDF8110020E7
:102640000FB403BC0CBCF0B50124E407634000E008
:10265000F0B50C0DCF0F661E3605891B640503D33C
:10266000C943404200D30131640D03D0661CF60A11
:1026700007D0E41B00207F00791C89078912803C69
:1026800024031D0DDF0F6E1E36059B1B6D0503D346
:10269000DB43524200D301336D0D03D06E1CF60AAA
:1026A00007D0ED1B00227F007B1C9B079B12803D07
:1026B0002D032F1B661B58D4A446202E46DA203744
:1026C0001400BC401D00BD40F24033412A43801835
:1026D0005941CB0F05D0C943C04300226442504149
:1026E000514162464D0D28D10D0D07D100281FD054
:1026F000241940414941013A0D0DF9D0640006D337
:10270000013000D30131002C01D140084000013AD2
:102710000BD4941CE40A04D112051144DB071944BC
:10272000F0BDD907204B194300E0D9070020F0BDC8
:102730000029DDD1002CDBD1F0BD0132C6074008F5
:10274000CD0728434908002EE1D0D9E73C2E29DAED
:10275000203E40371400BC4000D00124F240144316
:102760001A00BB401C43D317ACE7AC46202F08DA55
:1027700020360400B4400D00B540F84039412843EC
:10278000A5E73C2F0CDA203F40360400B44000D0CF
:102790000124F84004430800B1400C43C117EAE7A4
:1027A00010001900002494E70000F07FF0B50C0D34
:1027B000661E3605891BE60A6405640D02D0651C99
:1027C000ED0A04D0002001210905803C2403A44621
:1027D0001C0D671E3F05DB1BE70A6405640D02D074
:1027E000651CED0A04D0002201231B05803C240354
:1027F0007740644497B484B296B27443070C7E4326
:10280000150C6F4380B26843361802D301200004D0
:102810003F183004350C00197D41844688B29AB2C5
:1028200050430C0C62431F0C7C438EB27E439219C2
:1028300002D301263604A4191604170C3618674172
:1028400001BC81B29AB25143040C62431B0C5C433D
:1028500080B25843121802D3012000042418100437
:10286000130C401863412D185E410020474106BCFF
:1028700088B293B258430C0C6343120C544389B290
:1028800051435B1802D301210904641819041A0C7E
:10289000091862416D1856410020474118BCF902E1
:1028A000720D1143F0026A0D1043ED020A0D03D1BF
:1028B0006D1940414941013B124E9B1B7600B342CA
:1028C0000ED26D0007D301300026714166463543B4
:1028D00001D1400840001B05C918E4072144F0BDA0
:1028E0000BDA013306D1013004D101314F0D01D093
:1028F0004908F2E7E1070020F0BD0136310500206C
:10290000EBE70000FF030000F0B51C0D671E3F055C
:10291000DB1BE70A6405640D02D0661CF60A04D0CE
:10292000002201231B05803C2403D0252D06002610
:10293000F6432E661E096E66CE0FF619B4464900A0
:102940004F0D02D07E1CF60A03D000200021403F2C
:102950003F033E1BB600B444013F7F05C91B490835
:102960002E6F013676089C02950D25437543ED13B5
:102970007543AD1301356D10F603761B0CB4CC0214
:10298000450D2C43A2B2B3B25A43270C7B43350CFE
:102990006F43A4B26C431B1902D3012424043F19D2
:1029A0001C041D0CA4187D4124196D41009A91B29C
:1029B000ACB26143170C7C432B0C5F4392B25A4379
:1029C000A41802D301221204BF182204230C5218A7
:1029D0007B41019C6C431B19520ED9010A434401EF
:1029E000A01A81B2B2B2514303145A43360C734356
:1029F00087B27743D617D21900277E4136049B1938
:102A00001704160C7F185E417316ED18F3010026AB
:102A100080337541A90F06D16400690AE8055B0A95
:102A2000184309D22FE00422944480337541A90A47
:102A3000A8059B0A184326D3404149412404009A23
:102A4000019B0D005543641B4343E41A95B286B2C3
:102A50007543170C7E43030C5F4392B25A43B6187A
:102A600002D301221204BF183204330C52197B41E5
:102A700052429C41002C02D40022013051414008B6
:102A8000CA071043490802B06246D7079210084BA4
:102A9000D218084B9A4203D212058918C919F0BD01
:102AA0000020002A01DC3900F0BD01331905F5E7EB
:102AB000FD030000FE070000002200B5203200F0F8
:102AC00004F8080000BD000000220B150AD410B560
:102AD000944600F031F81414013400DA0021CB17C9
:102AE000144C20470020002170476244343A0CD433
:102AF0000C2A07DA04009140904052422032D44020
:102B0000214310BDD843D94310BD203207D40C4611
:102B10009440524220321141D040204310BD080061
:102B2000C917203203D452422032104110BD180080
:102B3000190010BDEB2A00100A0DCC0F531E1B0507
:102B4000C91A520503D3C943404200D30131520D83
:102B500003D0531CDB0A07D0121B00206400611C49
:102B600089078912803A1203014BD21A704700007C
:102B7000FF03000051434343C9188C46110C83B234
:102B80004B4310B4040C614392B280B25043624391
:102B90001C041B0C001910BC59411304120CC01862
:102BA00051416144704700004840414048400E4B4D
:102BB0005B6818470C4B1B6818470C4A936F9B08BF
:102BC00002D2094BDB681847F0B5146E556E576F8B
:102BD000166FFFF7F6FF054A1466556657671667C6
:102BE000F0BD014B9B681847F8120020000000D090
:102BF000491A002808D1084670470000C10FC907CC
:102C000000D54042002817D0F44603B40B4B1B6894
:102C1000984706BC81409E384042803107D20B065F
:102C200007D04900490AC0051043084360470130F6
:102C3000F8E7490A8902F5E770470000501F0020B5
:102C4000014B5B6A18470000F8120020132310B5EF
:102C500012481C78FEF7C4FF0100012C0AD003DDE6
:102C600080220F4800F048F80E48FEF7B1FF0E4BE7
:102C7000186010BD0A4C5422200000F03DF80B4BA8
:102C80006365A365E36523666366A366E3662367FE
:102C90006367A367E3672362E361E5E753460000E8
:102CA000F81200204C330000501F0020B12C0010FF
:102CB00007B5604601880A0A0230DF2AFAD1C9B294
:102CC000820804D3028840880004104300E00068B2
:102CD000014A5050039007BDF8120020014804211A
:102CE000014B184720100020F11B0010014B1B68FE
:102CF0001847000020100020014B5B6818470000B7
:102D0000201000207047C046F8B557464546DE46BD
:102D10004E46E0B598460A9B06009A460D9B0F006A
:102D2000934615009B0710D10B9B0C9A93420CD233
:102D300013005C460B9A9D1A5D4422004346013401
:102D400039002020B047A542F7D10B9C6319002C15
:102D500009D01D0053462A1B013C185D390043462B
:102D6000B047002CF6D10D9B9B070ED55B46EC1AA5
:102D70000C9BA34209D999462A00434639002020DA
:102D80000134B0470135A145F6D82800F0BCBB4658
:102D9000B246A946A046F8BDF0B54F464646D646CF
:102DA000C0B584B098460EAB1B7894469946129BEA
:102DB0000D9C109F119E9A0724D4002E6AD1BC420C
:102DC00020D201221A409246202C00D1CBE00C9A4E
:102DD000551E302201E0202C30D001342A55A74264
:102DE000F9D85246002A0DD0B4420BD20C9A551E87
:102DF0003022202C02D126E0202C61D001342A552B
:102E0000B442F9D1DA0634D55A0562D4002C5CD12B
:102E10000F9A102A00D191E0022A00D1A1E03022BD
:102E20000C9C227001244A46002A5CD15A0700D427
:102E30007DE02B220C9D2A5501341CE05246002ACD
:102E400002D0202E3CD92024DA0614D55A0512D4FB
:102E5000202F00D197E0202E3BD120261F223400C6
:102E60000F9D102D00D181E0022D4CD030250C9FFC
:102E7000BD54202CD7D103930C9B6246009302963D
:102E800043460194FFF740FF04B0E0BCBA46B146A8
:102E9000A846F0BD012215001D40AA461A4227D0BF
:102EA0004A46002A33D10C321A4230D1BC429BD25E
:102EB000202C00D08BE7202EC5D8DA06A4D4DAE780
:102EC0002024DA06D7D55A0503D4A74221D0B4422C
:102ED0001FD00F9A102A21D0022A10D0202CCAD03D
:102EE00022000134C2E72D220C9D2A550134C2E78D
:102EF000BC4200D386E7202C00D068E7E1E7202C15
:102F0000B9D02200013462250C9FBD54E6E7013E92
:102F1000CCE7621E012C00D17AE7A1E79A0616D40D
:102F2000202CA8D078220C9D2A550134D6E71A0708
:102F3000A1D520220C9D2A5501349CE79A060ED477
:102F400078220C9C22703022627002246BE7202CC5
:102F500091D058250C9A121915700134BEE75822E9
:102F6000EFE76222EDE7002AA7D1AAE7023C9D061F
:102F700004D478250C9F3D551400B1E758250C9FCB
:102F80003D551400ACE71F226AE7C04610B5002883
:102F900000D110BD01F020FBFBE7C0460B0010B5CF
:102FA000002802D049681B68984710BDF0B5574605
:102FB0004E464546DE46E0B599B082468946904683
:102FC0000993229A239B10001900FFF778FA002832
:102FD00000D0C8E0229823990122D54B5242FFF736
:102FE00069FA002800D0BEE0229823990122D14B33
:102FF0005242FFF751FA002800D0B4E022982399FA
:1030000000220023FFF748FA002800D0E9E1229EC1
:10301000239F8023269ADB001A400D92269A1A429B
:1030200001D1062324933B00334300D0B4E0269B18
:103030001B0500D5BFE1002300240A930B94002355
:1030400004250C93259B0024AB4200D95C1B022372
:10305000269A1A400D92269A134203D06B426B4176
:103060005B421C400C9B002B07D00A9A0B9B300044
:103070003900FFF7B0F906000F00229823990022CB
:103080000023FFF709FA002803D0802109067B18E6
:103090001F00269AA84B009601971340099E04939F
:1030A000249B03940293424633004946504600F065
:1030B000A7F90400002D67D02020269A4946024037
:1030C00013005A4253415B42621C18400A9233007B
:1030D00022004530D0470C9A6F1ED317D4185C409D
:1030E000D30F9B46002501E0202D13D008AA94465B
:1030F0001F23200063440A2101355E19FEF71EFFDD
:103100003031317020000A21FEF718FF260004003C
:10311000092EE9D805230693002304930A33039369
:103120005B46099E029310AB0A9A0093494633000E
:10313000504605970195FFF72FFE0D9A0400002ACF
:1031400022D04246851A259AAA421DD9B046574632
:10315000160022004346494620200135B847013475
:10316000AE42F6D810E0269B42460493259B494682
:103170000393249B50460293229B239C009301942B
:10318000099B00F03DF90400200019B0F0BCBB46DB
:10319000B246A946A046F0BD684B78009C46400D5B
:1031A0006044FFF79DF9664A664BFFF732F9664ABD
:1031B000664BFFF707F9664A3B031B0B1A430400F3
:1031C0000D00644B110030000022FFF7F2F8624A54
:1031D000624BFFF71EF902000B0020002900FFF7E9
:1031E000F1F8FFF795F90C90FFF77AF95C4A5D4B1F
:1031F00004000D00FFF70DF900225B4BFFF7E2F82A
:10320000FFF786F9594A8346594B20002900FFF7FA
:1032100000F9040058460D00FFF762F9554A564B75
:10322000FFF7F7F802000B0020002900FFF7C1F8B4
:1032300002000B000A900B91FFF7EBF804000D0061
:103240000A980B9902000B00FFF7BCF800220E90C1
:103250000F914A4B20002900FFF7BDF80022484B90
:10326000FFF7B0F802000B0020002900FFF7B3F8C9
:103270000022444BFFF7A6F802000B0020002900B3
:10328000FFF7A9F80A9A0B9B0D0080210400C905DD
:103290000020FFF78EF802000B0020002900FFF746
:1032A00091F8394C02000B000E980F99FFF793F834
:1032B0005C440022264BFFF785F823050022FFF728
:1032C000A8F804000D0002000B00300039000A9439
:1032D0000B95FFF7E1F800285ED123002A00C625F0
:1032E0000C9963318D42AD4126996D420435090533
:1032F00000D4A7E6134364D030003900234A244B9E
:10330000FFF7D0F8002807D0002230003900214B09
:10331000FFF7C2F8002854D1249B002B00D191E67E
:103320000D9B5A1E9341249AD31A24938AE6C046D1
:10333000FFFFEF7FFFFFEFFFFFF7FFFF01FCFFFF46
:10334000FB799F501344D33FB3C8608B288AC63F94
:103350000000F03F0000F83F61436F63A787D23F52
:1033600071A379094F930A400000E03F1655B5BBA1
:10337000B16B0240EF39FAFE422EE63F00002C40CE
:103380000000244000001840FF0300002D431CEB08
:10339000E2361A3F80842E410C9B0022013B0C93A5
:1033A0002000164B2900FFF716F80A000100030061
:1033B0000A910B9293E7002300240A930B940023B5
:1033C0000C93249A0C9B9A4214DDD31A013B24934C
:1033D0008023269ADB001A430023002526920C93B3
:1033E00030E6802212069446229B1E00239B6344F3
:1033F0001F000EE600232493EAE7C04600002440A5
:10340000F0B54546DE464E465746E0B595B08B468C
:10341000904699461E9A1F9B0A9019001000209D05
:10342000FFF74DF8002800D0B0E11E981F99012247
:10343000C74B5242FFF730F8002800D037E11E9802
:103440001F990122C34B5242FFF734F8002800D0E5
:10345000A7E01E981F990022BF4BFFF72BF800280A
:1034600000D088E01E981F990022BC4BFFF714F88B
:10347000002800D07FE01E981F9900220023FFF74C
:103480000BF8002800D0FAE000230B938023229C45
:10349000229ADB001C401A4200D102E1092D00D81B
:1034A0007EE106A98C462C00172200233021093C1E
:1034B00062440133D154EF1A202B00D132E1A342F0
:1034C000F7D10022A44B069207931E981F99FFF78D
:1034D0001FF80500FFF704F802000B001E981F9963
:1034E000FEF767FF069A079BFEF793FF0890099186
:1034F000FFF732F80600FEF7EFFF02000B00089816
:103500000999FEF756FF0022954B08900991FEF7A6
:10351000D1FF002800D1D2E001363000FEF7DCFFF9
:10352000069A079BFEF7BEFF002801D00026013552
:10353000AA46002F00D098E02800FEF7D1FF020035
:103540000B001E981F99FEF734FF854B00220600E2
:103550000F00FEF7A1FF0CAB9A46002845D10022D0
:10356000300039007E4BFEF7A5FF00283DD1EB0768
:103570003BD5013539E0229B42460493219B5946B5
:1035800003930A981E9B1F9C0295009301944B463F
:10359000FFF70CFD15B0F0BCBB46B246A946A046ED
:1035A000F0BD229B5B0767D403226E4B22990192E8
:1035B000039121990291009342464B4659460A983D
:1035C000FFF7A2FBE6E706AA944617232800634408
:1035D0000A2101341E19FEF789FC303128003170B0
:1035E0000A21FEF783FC051E76D0202CEBD10323A5
:1035F000229A1340012B1DD1219B002B1AD00B9B2B
:10360000002B00D0BBE0229A0C33134200D0B6E06E
:10361000219BA34200D887E006AB9C4617223023AB
:10362000624404E02199013413558C4259D0202C76
:10363000F8D12024229B01940393219B02935346AB
:10364000B9E706AA944617230A21634430000134DF
:103650001D19FEF773FC3031297030000A21013F3B
:10366000FEF76CFC092E46D90600202CE9D1554600
:103670000CAB20249A46B8E704223B4B96E71E9AEF
:103680001F9B00200021FEF794FE01230B93802353
:10369000229C229ADB001E901F911C401A4200D0EF
:1036A000FCE60022314B0627069207930DE7229B8A
:1036B0000393219B0293042301932D4B7BE700226C
:1036C00008980999264BFEF7E7FE002800D02FE75F
:1036D000002E4FD101362BE70323229A1340012BF2
:1036E00068D0202CA6D00B9B002B1FD02D23524638
:1036F000135501349EE75546202CB9D030223B1992
:10370000002F4BD0172006A9013409180A55202C88
:10371000AED09C42F6D10CAA92462E2251465C1C99
:10372000CA5462E72024CCE6202C83D0229B5B077E
:1037300008D4229B1B0700D47CE720235246135554
:10374000013477E72B2352461355013472E7C04604
:10375000FFFFEFFFFFFFEF7F65CDCD4165CDCDC111
:103760000000E03F007A0010F879001080842E41BC
:10377000087A0010F30700D4DAE60136D8E6219B78
:10378000013B2193A34200D946E7AAE7229B03937A
:10379000219B029303230193084B0CE72300BAE714
:1037A000074BEA009B185C681B682F000693079480
:1037B00000248AE6219B002B93D020E7047A001096
:1037C000B07B0010F0B5DE4657464E464546E0B5A4
:1037D0009FB01C00289B93460A93CC4ACC4B8A4648
:1037E00009901A60002900D14DE100232078994604
:1037F000002800D14FE1C74B4D460893C64B0D93AF
:103800000AE02A006E1C5B46099D5146A847350018
:1038100001342078002872D02528F2D1102399464F
:10382000083B9846043B00219C460227013420783F
:1038300026000300203BDBB2102B03D8089A9B0024
:10384000D3589F460300303B092B6ED900272A2806
:1038500000D18AE000230B932E2800D176E00300EC
:10386000683BDBB2122B1BD8AC4C9B00E3589F4645
:10387000012301341943DAE739430134D7E76346BA
:1038800001341943D3E74B4601341943CFE743468C
:1038900001341943CBE780235B007078194301366C
:1038A00067280AD824281FD90300253BDBB2422B06
:1038B0001AD80D9A9B00D3589F460300693BDBB290
:1038C0000F2B11D801249C40954AA44690461440E1
:1038D0000C9462464446224200D025E20A2B00D1D5
:1038E00001E1072B00D1D8E0099C2A005B46514634
:1038F000A04770786F1C741C3D0000288CD1A9462D
:103900002C00CB4503D801235B425B4499465B46C0
:103910004A4651460020099DA84720001FB0F0BC30
:10392000BB46B246A946A046F0BD0027BB00DF1942
:1039300001367F003F183078303F0300303B092BC1
:10394000F4D900230B932E2800D088E780237078C9
:10395000DB0019430300303B741C092B00D82CE119
:103960002A2800D138E1260079E70A9B80CB002F76
:1039700003DB60780A93661C6CE7022260781143CF
:103980007F420A93661C65E7672800D1C8E1472893
:1039900000D104E2452800D104E207200A9B0491EB
:1039A0000733834319000B9A039702920CC90998B5
:1039B000009201930A912A005B465146FFF7F6FAFE
:1039C000741C050025E770786C2800D10DE2802377
:1039D0005B001943013663E780239B00707819432D
:1039E00001365DE77078682800D1F9E1802301365F
:1039F000194355E7462800D18FE107200A9B04911F
:103A00000733834319000B9A039702920CC9099854
:103A1000009201930A912A005B465146FFF7F0FCA1
:103A2000741C0500F5E62A00099C5B4651462520DA
:103A30006F1CA0473D00741CEBE6890700D4DEE153
:103A40000A9B2A0098466B1C9946434601CB514677
:103A50009846099C5B46C0B2A047ED19012F00D8DB
:103A600093E24C46B1465646099F22005B4601341C
:103A700031002020B847AC42F7D1B24643464E460B
:103A80000A93741CC5E6274B2078099300239946B6
:103A9000002800D0AFE6002433E70A9B1A0008CACA
:103AA0009046002B00D1A7E0212008430EA98C46A8
:103AB0001F2262440F27AC46814615000C9C02E091
:103AC000202C0CD013003800184001003731092891
:103AD00000D80739013429551A090F2BF0D865464B
:103AE00048460C9494E00A9B1A0008CA12920B9A5A
:103AF000002A7BD102241A786442002A1DD00134A6
:103B000018199C461C00030010E0C046C537001081
:103B1000241F0020107A0010A07A0010547A0010A0
:103B200041900000052D00109C4203D060780134C4
:103B30000028F9D16346E01A0C908020C00084462A
:103B4000084080466046014204D00B980C9C844299
:103B500000D90C900220844608400A906046084232
:103B600000D189E1101E00D170E14246002A00D147
:103B70001BE10B9A5B1B9046A84444462A00B846BA
:103B800099465746B246099E09E05B463900551CE6
:103B9000B0474B46585D002800D12CE12A009442E2
:103BA000F3D156462500BA4647460A9B002B00D063
:103BB0004CE1129B741C0A932BE6002293009B1885
:103BC0005B0001341A182078303A0300303B092B8F
:103BD000F4D926000B9242E60A9B023604CBD0436E
:103BE000C01702400B9230780A9338E61A78002A00
:103BF000A3D00B98441E82E7102308008027984327
:103C0000113318430B00FF003B40394200D14DE710
:103C1000082305930B9B2A0004931023039300238E
:103C200002930C9B0690019316AB009351465B46A2
:103C30000998FFF7B1F843460500741C0A93E8E5BC
:103C4000622800D1A6E1582800D1B1E180230A0002
:103C5000DB001A409046194200D189E111239943B3
:103C60008C46802362469B001A40100062461A422E
:103C700000D023E1802364465B001C401A4200D040
:103C800032E263465B0600D56BE163460A991B0688
:103C900000D4DBE208C91BB2DA179818504080B292
:103CA0000A91DA0F0C92002B00D118E280460EAA7E
:103CB00091461F234B441395E14645461297B04663
:103CC0001E0001E0202C0FD028000A21FEF736F953
:103CD000013437193031397028000A21FEF72EF9E6
:103CE0002F000500092FEDD84646CC46129F139DA4
:103CF000634606930B9B059704930A2303930C9B3F
:103D0000029316AB2A000194009351465B46099832
:103D1000FFF742F8741C05007BE5202319436CE68D
:103D200080231B01194338E6782800D07CE18023EA
:103D30000A00DB001A409146194200D1A5E20D238A
:103D40009943080003330C93802302009B001A4020
:103D50009046184200D078E1802304005B001C40AC
:103D6000184200D007E2430600D453E2FF210A9B29
:103D700004CB0A4090460A934346002B00D026E12C
:103D8000103398434B46002B00D120E100240B9BBD
:103D9000069004930C9B059703930023B0E78023C0
:103DA0001B01194320231943F7E55B1B99460C9B24
:103DB000099C98465B46B3465646BA461F002A0001
:103DC0003B003100A0474B460135585D0028F6D135
:103DD00043460C933B005746B2465E469B46E4E69C
:103DE000C023B078194302365AE5C0239B00B0784F
:103DF0001943023654E55646BA464746D5E6012FE2
:103E000000D832E26B1E9846B8442C00A9464546BD
:103E1000B8465746B246099E22005B460134390037
:103E20002020B047AC42F7D10A9B564601CBBA4698
:103E30004746984622005B46099C5146C0B2A047BF
:103E40004D464346ED190A93741CE2E40C9BA846C8
:103E50009F4200D8ADE64446B04656467D19099FBC
:103E6000ED1A22005B46013431002020B847AC42F5
:103E7000F7D1B24646469CE60C98874200D8F0E15E
:103E8000424698467919B9465746B246099E0C1AD9
:103E90000C922A005B46013539002020B047A5422C
:103EA000F7D15646BA464F4643460C9A90467A1C7E
:103EB0000C921A78101E00D057E67AE608220721E5
:103EC00091460A9B07338B4399444A460ACB0C0020
:103ED0000A921C43DA0F002C4ED0D8170400109021
:103EE0004C4011900E94109811990C005C400F9466
:103EF0000E9B0F9C1B1A8C410E930F940EA98846A3
:103F00001F23002443441297B046270013951E0038
:103F10000E9C0F9DE1460C9201E0202F10D0200056
:103F200029000A220023FEF747F8013730322B0020
:103F3000F2550D0022000400002BEED1092AECD826
:103F40004646CC460E940F950C9A3C00139D129F4A
:103F5000634606930B9B059704930A2302920393EF
:103F6000CFE6FF230A9904C9134018000A9198E686
:103F7000102399438C4674E643460024002BE7D176
:103F8000002300240E930F94B8E743464D460A934E
:103F9000741C3EE480230A00DB001A40914619425B
:103FA00000D140E10D2399430B3B08000C93CBE675
:103FB00080230A00DB001A409146194200D162E1D9
:103FC0000D2320209943033308430C93BCE661235F
:103FD000810600D541230EA91F228C46DBB2624424
:103FE0000A3B13971495814645460C9FB0461293A1
:103FF000160008E03033DBB201343355BD420ED336
:10400000202C0CD0050039002800FDF797FFCBB21B
:104010000929EFD9129A94466344DBB2ECE746468D
:104020004846139F149DB2E66F2800D03CE10C2354
:104030000800984380230A00DB001A409146194289
:1040400000D02AE108230C937EE60A99FA3BFF3B55
:104050000731994301339C468C4463464A680A936E
:104060000B6890469C461343191E06D14B461031EF
:1040700000248843002B00D089E66121830600D507
:1040800041210EAA91461F234B449946C9B20C9B6D
:104090000A3913971495159645464E4600246746EF
:1040A0009846814612910CE03032D2B2002301349E
:1040B0003255AB4200D1BCE0202C00D1BCE007005F
:1040C0000D004246002338002900FDF775FFD2B2EB
:1040D000092AE9D9129B9C466244D2B2E6E74346DC
:1040E000002B00D004E6E2E50A9C08CCDA0F13921C
:1040F000002B00D1A5E0D9175B184B4098460EAABB
:1041000091461F234B440C95A14645461296E04626
:1041100006001C000A9701E0202E0FD028000A217B
:10412000FDF70CFF0136A7193031397028000A213C
:10413000FDF704FF2F000500092FEDD8C4464C46BB
:1041400030000A9F0C9D129E634606930B9B2A002B
:1041500004930A230393139B0190029316AB0093DD
:1041600051465B4609980597FEF716FE0A9405002E
:10417000741CFFF74EFB0A9B10CB1493002C04D148
:10418000102398434B46002B2CD16123810600D588
:1041900041230EA91F228C46DBB262440A3B1297D0
:1041A0001395814645460C9FB0460A93160008E0D9
:1041B0003033DBB201357355BC420ED3202D0CD009
:1041C000040039002000FDF7B9FECBB20929EFD970
:1041D0000A9A94466344DBB2ECE748464646129F8F
:1041E000A846139D0B9B2A0004930C9B06900393F7
:1041F000002302934346019316AB009351465B465E
:1042000009980597FEF7C8FD149B05000A93741CD6
:10421000FFF7FFFA03061FD50A9B02CB09040A0C1D
:1042200090460A93A8E50C2399430A3B08000C9397
:104230008AE5B84500D83FE74846139F149D159E70
:10424000A5E54346002B00D07EE758E708C9DA17FA
:10425000981850400A9124E50A9B04CB90460A9393
:104260008AE5010001310C9124E60A9F6C1C01CF04
:104270002A005B46099D5146C0B2A84725000A970F
:10428000741CFFF7C6FA202319430C23994300231B
:104290009946103308000C9356E508238C460C937E
:1042A0000D23604698434FE510230A009A43944635
:1042B000692808D180230A00DB001A409046194281
:1042C00000D1CEE4CAE41C230800984380230A00EE
:1042D000DB001A409146194202D10A230C9333E5C0
:1042E0000A230C93DCE7C04600B585B00391012199
:1042F00002900093034813004A4202A9FFF762FAB2
:1043000005B000BD9D2F001010B5094A03001468C8
:1043100084B0002C08D0012200910648524203A923
:10432000A047012004B010BD00F0A2F90020F9E779
:10433000241F00208D2F001000BEFDE710B5FFF7F1
:10434000FBFFC04670B5FDF7A5FC074D074EB54213
:1043500009D20024013E761BB60808CD98472300F9
:104360000134B342F9D170BD7C780010847800101C
:10437000030010B5080011001B68984710BDC04627
:10438000F0B546464F46D646C0B5437D80460E0042
:104390001700002B4BD0002A32DD274B01259A460F
:1043A0004B1E00240020994607E0335D0A2B2CD0D9
:1043B0002B0001340135BB4213DA002CF5D13378E0
:1043C0000A2BF5D143461B7D002BF1D143465046C5
:1043D00002211B68984728002B0001340135BB429D
:1043E000EBDB874204DD4346391A1B6830189847D7
:1043F000F619013E33780D3B5A425341424613753C
:10440000E0BCBA46B146A846F0BD4B461B5D0D2B3D
:10441000CED0A042DADA4346211A1B6830189847FA
:104420004346504602211B6898472800D4E703689A
:10443000110030009847E3E7007C0010F0B5C64655
:104440000B6806000C0000B5802B06D05A1C2260B9
:10445000E418267180BCB846F0BD0F4B1D68002DD6
:1044600016D00B1D98460D4F02E02D69002D0FD080
:104470002B68002BF9D03B68002B01D0AB42F4D164
:10448000280041462268FFF77BFF2D69002DEFD100
:1044900001220023DBE7C046181B0020201B002060
:1044A000F0B5DE4657464E464546E0B585B01700A6
:1044B0001C0006000D00FDF7ABF80023314A12186E
:1044C0004B41802109068B4202D301222E4B5242DE
:1044D0002E4908008A4603F08BF901906B1C03D12A
:1044E000300002F089FE0500002C26D0284B9846AB
:1044F000284B1C68002C15D0002F21D1264F02E03C
:104500002469002C0ED02368002BF9D03B68002BC7
:1045100001D0A342F4D120002A003100C047246911
:10452000002CF0D1019B002B28D1280005B0F0BC55
:10453000BB46B246A946A046F0BD184B9846D7E701
:10454000154B994602ABDF1D0A239B4602E0246906
:10455000002CE7D02368002BF9D04B461B68002BBA
:1045600001D0A342F3D12A0031002000C0475B46AE
:104570000122390020003B70C047E8E7504603F0B5
:1045800007F9D2E740420F00FFFFFF7F68100020CD
:1045900081430010181B0020201B002071430010D5
:1045A0000A4A1368002B05D10CE01A001B6910326F
:1045B000002B07D09842F8D1002902D1036913607B
:1045C000016170470029FCD01060FAE7181B002039
:1045D00010B500F003FB10BDF0B5CE46474680B5E0
:1045E00083B06B460600DD1D2870FDF711F800232F
:1045F0001A4A12184B41802109068B4202D301222C
:10460000174B524217490800884603F0F1F8164B41
:1046100081461C68002C14D0144F02E02469002C41
:104620000FD02368002BF9D03B68002B01D0A342A8
:10463000F4D1200001222900FFF7A2FE2469002CFA
:10464000EFD14B46002B05D1300003B0C0BCB946BA
:10465000B046F0BD404603F09BF8F5E740420F003E
:10466000FFFFFF7F68100020181B0020201B002088
:1046700070B5040002F0C0FD012301000500012215
:104680002000FFF70DFF084B1C68002C06D0636864
:10469000002B05D098472469002CF8D1280070BD64
:1046A0002469002CF3D1F9E7181B0020F0B5CE46A1
:1046B000474680B5A3B004000D00FCF7A9FF002316
:1046C000294A12184B41802109068B4202D301224C
:1046D000264B5242264F380003F08AF8002306008A
:1046E000019322002B00234801A9FFF7FDFD019B48
:1046F0008046002B14D1204B1C68002C06D0636828
:10470000002B0BD098472469002CF8D1002E25D11E
:10471000404623B0C0BCB946B046F0BD2469ECE7C2
:10472000154B1D689946002D1CD0144C02E02D69D4
:10473000002D0FD02B68002BF9D02368002B01D05F
:10474000AB42F4D12800019A02A9FFF719FE2D69A6
:10475000002DEFD14B4601951C68CEE7380003F0E1
:1047600017F8D5E70195D1E740420F00FFFFFF7F23
:10477000681000203D440010181B0020201B002062
:104780000FB400B583B004A901C90191FFF78EFFF2
:1047900003B008BC04B018477047C0460022014B64
:1047A0001A707047092000204B790020FF2B0BD195
:1047B0008B79002B08D1CB79012B05D1082A03D99D
:1047C000024B8A7809301A707047C04609200020D1
:1047D0000120704710B5012901D0012010BD1349F7
:1047E0005379107909781B02034300209942F5D1CF
:1047F0005378012B08D0022BF0D100206422002135
:10480000FDF790F90120E9E7D37891781B0219436D
:10481000DB0507D54A0A100001231A407E331940F0
:10482000FDF708FA01204A0A4042F5E70920002076
:1048300000487047CC7C001070B5050014000120C2
:10484000012909D153780020012B05D16379127910
:104850001B021343072B00D070BD21002800024A21
:104860009F3301F067FAF7E7247C001001230370FF
:1048700000487047047C00104B780A781B021343F1
:104880008A7810B512041A43CB781B06134396227C
:10489000D200934200D010BD0022012011004042FE
:1048A000FDF7C8F9024B1860024B19607047C0460B
:1048B000B81A0020BC1A002010B5024B1878FCF77B
:1048C0007FF810BD0A200020154B70B51A68002A29
:1048D00022D0EFF3108172B610680028FCD0BFF32D
:1048E0005F8F00200F4A596010701B68BFF35F8F05
:1048F000186081F31088002400250B4E3078FCF7F7
:1049000053F8002804D1002400252900200070BDA0
:104910003078FCF755F8F8E7FA240025A400ECE716
:10492000301F00200B2000200A20002070B504005A
:1049300000200E0001F01EFB002836D0002001F000
:104940002FFB002831D0FCF763FE0023184A121811
:104950004B41802109068B4216D2164D280002F0E9
:1049600047FF002821D0002001F004FB00280FD1D0
:1049700001200021404200F00DFD03246442280084
:1049800002F006FF200070BD01220B4B5242E4E70B
:10499000002001F005FB0028EAD0210032000020B1
:1049A00001F008FB041EEAD1E7E703246442E9E7CB
:1049B00040420F00581F0020FFFFFF7F10B5FCF79B
:1049C00027FE00230E4A12184B41802109068B4214
:1049D00002D301220B4B52420B4C200002F008FF85
:1049E00000280CD001200021404200F0D3FC002020
:1049F00001F02AFB0028F5D1200002F0C9FE10BD0D
:104A000040420F00FFFFFF7F581F0020F8B5DE4631
:104A1000574680B505000C00FCF7FAFD0023374A25
:104A200012184B41802109068B4202D30122344BDC
:104A30005242344908008A4602F0DAFE002803D1C7
:104A4000C0BCBB46B246F8BD002001F093FA002876
:104A50004AD00026002C43DD2B4B9B4614E0A919BD
:104A6000002001F02BFB070001200021404200F054
:104A700091FC002001F0E8FAFCF7CAFD224BF61980
:104A800018605960B4422BDD002001F037FBA71BF2
:104A90000200B84200DD3A00002AE0D101200021E6
:104AA000404200F077FC002001F0CEFA002001F037
:104AB00061FA002814D0002001F020FB0028E1D189
:104AC000FCF7A6FD5B460F001A685B680021844670
:104AD0000E4812184B419F4202D8D3D19445D1D9E8
:104AE000504602F055FEABE700200021064B18604F
:104AF0005960504602F04CFEA2E7C04640420F000B
:104B0000FFFFFF7F581F0020F011002020A10700A9
:104B100030B52B4C85B00021200002F059FE002852
:104B20001CD1284B1A68002A16D0EFF3108172B6F8
:104B300010680028FCD0BFF35F8F01242248596021
:104B400002781B68D2B20470BFF35F8F0020186038
:104B500081F31088002A17D005B030BD0120002154
:104B6000404200F017FC002001F01AFA0500200076
:104B700002F00EFE002DEFD0144B1B68002BEBD083
:104B8000134A10689847E7E7FCF728FB0400FCF796
:104B90003FFDFA220023920012184B4180210906A2
:104BA0008B4202D301220B4B524201210291002180
:104BB0000191094920000091FCF714FBCCE7C046A5
:104BC000581F0020301F00200B200020B81A0020A2
:104BD000BC1A0020FFFFFF7FC9480010D02310B58A
:104BE0001B0684B01C68FCF7F9FAFCF7F7FBA0423F
:104BF00002D0002004B010BD2A4B002100201B78F9
:104C000001F076FD28480368002B47D00120FCF70F
:104C10006FF8FF23254C264920701840FBF7EAFE69
:104C200020780121FBF7AEFE0520FBF7D1FE00281E
:104C300026D1082200211F48FEF758F8FCF7CEFACB
:104C40000400FCF7E5FCFA220023920012184B4105
:104C5000802109068B4202D30122174B52420121C7
:104C6000029100210191154920000091FCF7BAFA48
:104C70000028BEDB12480121FFF792FC0120B9E7B2
:104C80000120FBF74DFE0B4B01001800FCF796F8D6
:104C9000002205200B49FBF7D7FEEBE7FCF772F883
:104CA000B4E7C0461C7F0010581F00200A200020D7
:104CB000114B0010301F0020FFFFFF7FC94800107C
:104CC00030100020B948001000487047A87D00103F
:104CD00000487047547D001010B504001748037851
:104CE000002B20D0002C06D1154B16484380063BE4
:104CF000FF3B038010BD052C19D8134BA400E058CE
:104D00001249002304E001330A800231132B10D032
:104D1000C25C002AF7D1C0220133DBB25B009200F3
:104D200008481343E5E7112100F01AF8DAE70020FC
:104D3000E0E7CA2303489B00DBE7C046E81F0020EA
:104D400009040000F01A00203C7D0010F21A002037
:104D500010B5024800F0D8F810BDC046481F00202A
:104D600030B54B1E012900D1A7E0664A11780D111C
:104D70002C0030349F2900D9A2E00470012B00D10F
:104D8000BEE00F21147821400C003034092900D9ED
:104D900098E04470022B00D1B2E05478251129002C
:104DA00030319F2C00D990E08170032B00D1A7E017
:104DB0000F2121400C003034092900D987E0C4704C
:104DC000042B00D19CE094782511290030319F2CD0
:104DD00000D97FE00171052B00D191E00F21214026
:104DE0000C003034092900D976E04471062B00D13B
:104DF00086E0D4782511290030319F2C00D96EE04F
:104E00008171072B00D17BE00F2121400C00303451
:104E1000092966D8C471082B00D171E014792511D5
:104E2000290030319F2C5FD80172092B68D00F21E7
:104E300021400C003034092958D844720A2B5FD025
:104E400054792511290030319F2C52D881720B2BB7
:104E500056D00F2121400C00303409294BD8C472A0
:104E60000C2B4DD094792511290030319F2C00D97D
:104E7000073101730D2B43D00F2121400C0030343A
:104E8000092901D937310C0044730E2B38D0D17960
:104E90000C11220030329F2900D9073282730F2B68
:104EA0002ED00F220A4011003731092A01D83032A2
:104EB0001100C173102B23D010300023037030BDBC
:104EC00007345AE737310C0063E707316CE73731B5
:104ED0000C0074E707317DE737310C0085E70731B7
:104EE0008EE737310C0095E707319DE737310C002D
:104EF000A3E70731AAE737310C00C4720C2BB1D1FC
:104F0000C018DAE7481F002030B5002589B004003A
:104F10000922002101A80095FDF7E8FE09220021E1
:104F200005A80495FDF7E2FE4B236A466846137018
:104F300004A90D2202F024FC152108222000694456
:104F4000FDF7DAFE09B030BDF8B500F045F90C23E5
:104F5000194DFF22AB6705201849FBF775FD184C6A
:104F6000402200212000FDF7C1FE4027002301263A
:104F70002121144A66702783A260136063545F3155
:104F8000618445396354104A10496360E2602787A1
:104F9000A1620B606362E26202F04AFC80239B051F
:104FA0002E64EB6490230A4A0120EA508022094BC8
:104FB0005202DA64F8BDC04600001150D904002046
:104FC000241B00208400105000011050800010505D
:104FD00010D001000020115010B501210520FBF771
:104FE000D1FC10BD10B500220021024800F014F9D8
:104FF00010BDC046441B0020044B1970002904D08A
:1050000080219023024A8902D15070470520002058
:10501000002011500B785B0602D14B78052B00D095
:1050200070478A78014B1A60FAE7C04600001150B9
:10503000F0B5C646C87800B58007830F1800012B6D
:1050400060D08F780A794B797F213940FC091B02A7
:105050004E001343334D32195201AA18977001279D
:105060006740577000275B055B0DD7701383D076C0
:10507000B846CA00012C32D02B4FBC468F01624487
:10508000BC46AC446746BA6047461760002932D038
:10509000264AC90090466246414451603F223F3350
:1050A0009343022837D0224937190A687F01D31861
:1050B0000B602049EF19FA608B422ED83619760121
:1050C000AD19EB7E1C499B064A4013438022120611
:1050D00013436A681360012080BCB846F0BD174FC7
:1050E000BC468F016244BC46AC446746BA62474640
:1050F0001760002908D1002364012C196360104B4C
:10510000E360E8E70020E7E70B4AC9009046624603
:1051100041445162C2E75B00C5E7FCF7B5FDFA68A0
:10512000CCE7C046241B002084001050040010501F
:105130002C1F0020FF0F1050000010508000105056
:105140000001105010B502F073FB10BD10B57F20A8
:105150000C0020404000E409110000191A00034B24
:105160004001C01800F058F8012010BD241B002099
:105170007F23180010B508400B420BD0C9098022CC
:105180004000074B401840010021C018120102F0F6
:105190003FFB10BD0223034AC9095B1A9366EEE781
:1051A000241B0020002011507F22130010B50B405B
:1051B0000A4200D110BDC9095B005B1804485B01BD
:1051C000C018002300220349C37002F021FBF1E75D
:1051D000241B0020FFF7FFFF80220A4B520410B56A
:1051E0001A60094B09491A6010000B689843FBD1FB
:1051F0008022002152010648FDF778FD0922054B67
:105200005A6710BD00E0004000F0004008C00040B8
:105210000000105000001150002310B5C38201336C
:10522000828283760161040002F0C2FA002804D071
:1052300080219023074A8902D150200002F0F0FA21
:10524000002802D00123237710BD200002F0D8FAF5
:10525000FAE7C046002011507047C0467047C0466C
:1052600000207047002070477047C0467047C04616
:105270007047C0467047C046024B5878431E98415D
:10528000C0B27047C4150020024B18784007C00F09
:105290007047C046C4150020F0B5D6464F46464676
:1052A000C0B5314B07009A461B780E00FF2B01D08A
:1052B000012044E0002941D0002154222B48FDF771
:1052C00015FD00222A4C2B4B20001A70FBF75AFDCB
:1052D000294B1C60294C2000143CFBF761FD200089
:1052E00001F0FAFD264B274D1C60274B002B2BD0DD
:1052F0002800FFF7BBFA254B2A78186024490024C0
:10530000894622490023884610E043461B68620113
:105310009B18002B12D05B68002B0FD098472A787F
:105320000134E4B2511C2300A1420FDBA242ECD8AD
:105330009B1A5B014B445B68002BEFD10020E0BC63
:10534000BA46B146A846F0BD2A78D7E753463100A1
:1053500038001F70FFF7F8FD0028EFD03800FFF786
:105360003BFE0120EBE7C04664100020C41500207E
:10537000BC15002006200020181600205C1000201C
:105380001C160020042000206D480010141400207A
:10539000C07E0010F0B5DE4657464E464546E0B5A5
:1053A000CE4B91B002931B78FF2B00D138E1CC4B50
:1053B000CC4E9B465F46CC4B0DAC0193CB4B009340
:1053C00035686A69EFF3108172B61368002BFCD060
:1053D000BFF35F8FA9612800210001F0BFFB6A695C
:1053E000AB69BFF35F8F0021116083F31088002841
:1053F00000D115E16378082BE2D89B00FB589F464B
:105400006368002BDCD0A0689847D9E77F22217918
:10541000B54D0A405300EB189846C80980444046F1
:105420000123303005799D430571057903339D4390
:105430000571002A00D1FAE04346AD4A1B7D12787F
:10544000934200D3E9E0AB4A5B011568ED18002DEB
:1054500000D1E5E0A36862792078AD69A847AFE79D
:10546000A54A1378002B00D1DAE01378013BDBB2B8
:1054700013701378002BA3D101229B4D01212B78AF
:10548000042013432B703423EA5C8A43EA54EA5C19
:105490008243EA540133EA5C8A43EA54EA5C824379
:1054A000EA54237800209B4600F0A4FC6022237974
:1054B0001A40602A0DD0402A00D1CAE0DB06DB0E7C
:1054C000012B00D120E1022B00D1DCE0002B00D128
:1054D000CBE020780021FFF74BFE80212078FFF7FA
:1054E00047FE6DE7804D2B78DB0700D468E7FFF7B8
:1054F000C1FE65E7019BDB78DB0700D460E76068ED
:10550000FFF7ACFE5CE7784D2B78DB0700D457E75C
:1055100028780007C00FFFF7ABFE51E723787349E7
:1055200099468B46724B734998468A4639001A78D9
:1055300047460023B04600254E46894610E05346B4
:105540001B686A019B18002B00D176E0DB683000F5
:1055500098473A780135EDB2511C2B008D4244DC5E
:10556000AA42ECD89B1A5B015B44EFE723786149C0
:1055700099465F4B8A4698463100BB464E461A789C
:1055800000250023474689460FE053461B686A0101
:105590009B18002B55D0DB68300098473A780135CE
:1055A000EDB2511C2B008D4207DC9542EDD39B1AC6
:1055B000009A5B0194466344EDE7019D542200216B
:1055C0002800FDF793FB1022FF214C48FDF78EFBCE
:1055D00028002022FF2114304E465F46FDF786FB4F
:1055E00000F0FEFBFFF742FEEAE63F4D54220021A9
:1055F0002800FDF77BFB1022FF21281DFDF776FB1D
:1056000028002022FF21143046464F46FDF76EFB4E
:1056100000F0E6FB2379AB70D2E6501C984213DA17
:1056200011B0F0BCBB46B246A946A046F0BDA36887
:105630006279207800F0F2FBC2E646464F462A4DDA
:10564000E6E74E465F46CBE7284D9B1A5B015D19A6
:1056500000E72B4800F0CEFB012158460EAAFFF7C9
:10566000EBF8002800D0ABE633E7202A00D156E162
:10567000002A00D02DE76379092B00D929E7214AB8
:105680009B00D3589F467023217A0B4200D020E71D
:10569000C80982460F330B405B0098461448EB184C
:1056A00053441B7D00789946834261D3431C4B458C
:1056B00000DA4EE14B461B1A5B0199460B488144C8
:1056C000002A00D14AE14B46586900F093FB4B4653
:1056D000012158465B690EAA9847C2E76410002072
:1056E000187E00101C160020C4150020C07E00107B
:1056F000042000201414002006200020C8150020DB
:10570000394800103C7E0010237A0F2B00D9E0E6C8
:10571000D74AEB181B791578AB4236D3691C9942EE
:1057200000DAD6E65D1BD34B6D01ED18686900F019
:1057300061FB012158466B690EAA9847002800D0EA
:105740003EE66022150023791D401A4200D0C0E6D3
:1057500063790A3B012B00D9BBE600F04BFB637970
:105760000A2B00D18EE158460EA900F0CDFA27E6AB
:10577000C1485B01006881469944002A00D1EDE0F0
:105780004B46002B00D1A4E69DE7BB4A5B011568A0
:10579000ED18002DCAD19CE6A37999466B789945FE
:1057A000E1D06B78002B00D034E14B466B70002BBE
:1057B00000D12CE148460138C0B2FFF789FA002831
:1057C00000D17EE143780793022B00D079E10122DA
:1057D000C179B1468B11491113400A4030211201A1
:1057E0005B0113432A78A8468A4313432B7009238D
:1057F0009A4682445646BA46C37882781B021343BF
:10580000C31805939A4B04939A4B08939A4B0993A8
:105810009A4B0A93059BB34200D855E17378012255
:105820000B2B03D13378F278F6187378042B00D061
:1058300044E1059B00279B1B9BB20693049B0B92A4
:105840001D78002303931BE0099A7B011568ED186E
:10585000002D00D132E1310058462B69069A984755
:105860008446082803D9069A824200D313E1049B98
:1058700001371D78FFB26B1C03979F4200DD1DE1CD
:10588000AF42E1D3039B5D1B089B6D019C466544C1
:10589000E1E76B780CAA02321370584601230EA977
:1058A00000F048FA8CE5E3881A0AD8B20F2A00D92A
:1058B0000FE673499300CB589F460EA800F0A0FA5C
:1058C0005846A179FFF78EFB02222B7813432B70E9
:1058D00076E5E388012B00D0FBE508222B785846BB
:1058E00093430EA92B7000F00FFA69E50220297886
:1058F0000CAB9A1C8B068908DB0F01400B4313800D
:10590000584602230EA900F015FA59E5E388012B49
:1059100000D0DEE508222B7813432B7023E7237A8F
:105920000F2B00D9D5E5EB181D79514B1B789D4203
:1059300028D2514B6D011B685D19002D00D1C8E5BF
:10594000686900F057FA012158466B690EAA98471A
:1059500087E6002A00D0BCE5002399466279022040
:10596000130003928343012B15D0002A00D0B0E529
:105970002B004344534430331B790CAA9B07DB0FA5
:105980000232BCE75A1CAA4200DAA2E5ED1A394BF2
:105990006D01ED18D4E7E388002B11D1012A25D041
:1059A000029B1878FFF7E4FB43460221EB185344AF
:1059B00030331A790A4301211A711A790A431A718C
:1059C0004B46002B00D1FBE4586900F013FA4B461C
:1059D00001215B690EAA58469847002000F00AFA98
:1059E0003523EB5CDB0700D5EAE4BCE6029B1878C4
:1059F000FFF7DAFB43460221EB18534430331A79A0
:105A00008A431A711A7903998A431A71D8E7FFF702
:105A10002DFCA8E600215846FFF7EEFA5846FFF79E
:105A200091FBAB78134903930491114B12499846AB
:105A30001A780591002329001D008A4610E0059B75
:105A40006A011B689B18002B57D0DB6858469847A3
:105A500043461A780135EDB2511C2B008D4238DCDB
:105A60009542ECD39B1A049A5B0194466344ECE79D
:105A700004200020C07E001014140020D81500203F
:105A8000647E00100CAB9A1C584601230EA91570B9
:105A900000F050F994E40B9A012A4FD0002A3CD030
:105AA0000023B07804E00133DBB20F71934234D2AB
:105AB0001918C9B241440D79FF2DF4D04E46454620
:105AC000574600236B7004E54E465746FFF7CCFB64
:105AD00049E65546542200212800FDF707F9102217
